{
  "contractName": "RefundEscrow",
  "abi": [
    {
      "constant": true,
      "inputs": [],
      "name": "beneficiary",
      "outputs": [
        {
          "name": "",
          "type": "address"
        }
      ],
      "payable": false,
      "stateMutability": "view",
      "type": "function"
    },
    {
      "constant": false,
      "inputs": [
        {
          "name": "_payee",
          "type": "address"
        }
      ],
      "name": "withdraw",
      "outputs": [],
      "payable": false,
      "stateMutability": "nonpayable",
      "type": "function"
    },
    {
      "constant": false,
      "inputs": [],
      "name": "renounceOwnership",
      "outputs": [],
      "payable": false,
      "stateMutability": "nonpayable",
      "type": "function"
    },
    {
      "constant": true,
      "inputs": [],
      "name": "owner",
      "outputs": [
        {
          "name": "",
          "type": "address"
        }
      ],
      "payable": false,
      "stateMutability": "view",
      "type": "function"
    },
    {
      "constant": true,
      "inputs": [],
      "name": "state",
      "outputs": [
        {
          "name": "",
          "type": "uint8"
        }
      ],
      "payable": false,
      "stateMutability": "view",
      "type": "function"
    },
    {
      "constant": true,
      "inputs": [
        {
          "name": "_payee",
          "type": "address"
        }
      ],
      "name": "depositsOf",
      "outputs": [
        {
          "name": "",
          "type": "uint256"
        }
      ],
      "payable": false,
      "stateMutability": "view",
      "type": "function"
    },
    {
      "constant": false,
      "inputs": [
        {
          "name": "_newOwner",
          "type": "address"
        }
      ],
      "name": "transferOwnership",
      "outputs": [],
      "payable": false,
      "stateMutability": "nonpayable",
      "type": "function"
    },
    {
      "inputs": [
        {
          "name": "_beneficiary",
          "type": "address"
        }
      ],
      "payable": false,
      "stateMutability": "nonpayable",
      "type": "constructor"
    },
    {
      "anonymous": false,
      "inputs": [],
      "name": "Closed",
      "type": "event"
    },
    {
      "anonymous": false,
      "inputs": [],
      "name": "RefundsEnabled",
      "type": "event"
    },
    {
      "anonymous": false,
      "inputs": [
        {
          "indexed": true,
          "name": "payee",
          "type": "address"
        },
        {
          "indexed": false,
          "name": "weiAmount",
          "type": "uint256"
        }
      ],
      "name": "Deposited",
      "type": "event"
    },
    {
      "anonymous": false,
      "inputs": [
        {
          "indexed": true,
          "name": "payee",
          "type": "address"
        },
        {
          "indexed": false,
          "name": "weiAmount",
          "type": "uint256"
        }
      ],
      "name": "Withdrawn",
      "type": "event"
    },
    {
      "anonymous": false,
      "inputs": [
        {
          "indexed": true,
          "name": "previousOwner",
          "type": "address"
        }
      ],
      "name": "OwnershipRenounced",
      "type": "event"
    },
    {
      "anonymous": false,
      "inputs": [
        {
          "indexed": true,
          "name": "previousOwner",
          "type": "address"
        },
        {
          "indexed": true,
          "name": "newOwner",
          "type": "address"
        }
      ],
      "name": "OwnershipTransferred",
      "type": "event"
    },
    {
      "constant": false,
      "inputs": [
        {
          "name": "_refundee",
          "type": "address"
        }
      ],
      "name": "deposit",
      "outputs": [],
      "payable": true,
      "stateMutability": "payable",
      "type": "function"
    },
    {
      "constant": false,
      "inputs": [],
      "name": "close",
      "outputs": [],
      "payable": false,
      "stateMutability": "nonpayable",
      "type": "function"
    },
    {
      "constant": false,
      "inputs": [],
      "name": "enableRefunds",
      "outputs": [],
      "payable": false,
      "stateMutability": "nonpayable",
      "type": "function"
    },
    {
      "constant": false,
      "inputs": [],
      "name": "beneficiaryWithdraw",
      "outputs": [],
      "payable": false,
      "stateMutability": "nonpayable",
      "type": "function"
    },
    {
      "constant": true,
      "inputs": [
        {
          "name": "_payee",
          "type": "address"
        }
      ],
      "name": "withdrawalAllowed",
      "outputs": [
        {
          "name": "",
          "type": "bool"
        }
      ],
      "payable": false,
      "stateMutability": "view",
      "type": "function"
    }
  ],
  "bytecode": "0x608060405234801561001057600080fd5b50604051602080610757833981016040525160008054600160a060020a03191633179055600160a060020a038116151561004957600080fd5b6002805460ff19600160a060020a03939093166101000261010060a860020a0319909116179190911690556106d4806100836000396000f3006080604052600436106100b95763ffffffff7c010000000000000000000000000000000000000000000000000000000060003504166338af3eed81146100be57806343d726d6146100ef57806351cff8d914610106578063685ca19414610127578063715018a61461015c5780638c52dc41146101715780638da5cb5b146101865780639af6549a1461019b578063c19d93fb146101b0578063e3a9db1a146101e9578063f2fde38b1461021c578063f340fa011461023d575b600080fd5b3480156100ca57600080fd5b506100d3610251565b60408051600160a060020a039092168252519081900360200190f35b3480156100fb57600080fd5b50610104610265565b005b34801561011257600080fd5b50610104600160a060020a03600435166102d0565b34801561013357600080fd5b50610148600160a060020a03600435166102f0565b604080519115158252519081900360200190f35b34801561016857600080fd5b5061010461030c565b34801561017d57600080fd5b50610104610378565b34801561019257600080fd5b506100d36103e4565b3480156101a757600080fd5b506101046103f3565b3480156101bc57600080fd5b506101c561044f565b604051808260028111156101d557fe5b60ff16815260200191505060405180910390f35b3480156101f557600080fd5b5061020a600160a060020a0360043516610458565b60408051918252519081900360200190f35b34801561022857600080fd5b50610104600160a060020a0360043516610473565b610104600160a060020a0360043516610493565b6002546101009004600160a060020a031681565b600054600160a060020a0316331461027c57600080fd5b60006002805460ff169081111561028f57fe5b1461029957600080fd5b6002805460ff1916811790556040517f1cdde67b72a90f19919ac732a437ac2f7a10fc128d28c2a6e525d89ce5cd9d3a90600090a1565b6102d9816102f0565b15156102e457600080fd5b6102ed816104b9565b50565b600060016002805460ff169081111561030557fe5b1492915050565b600054600160a060020a0316331461032357600080fd5b60008054604051600160a060020a03909116917ff8df31144d9c2f0f6b59d69b8b98abd5459d07f2742c4df920b25aae33c6482091a26000805473ffffffffffffffffffffffffffffffffffffffff19169055565b600054600160a060020a0316331461038f57600080fd5b60006002805460ff16908111156103a257fe5b146103ac57600080fd5b6002805460ff191660011790556040517f599d8e5a83cffb867d051598c4d70e805d59802d8081c1c7d6dffc5b6aca2b8990600090a1565b600054600160a060020a031681565b6002805460ff168181111561040457fe5b1461040e57600080fd5b600254604051600160a060020a036101009092049190911690303180156108fc02916000818181858888f193505050501580156102ed573d6000803e3d6000fd5b60025460ff1681565b600160a060020a031660009081526001602052604090205490565b600054600160a060020a0316331461048a57600080fd5b6102ed8161057e565b60006002805460ff16908111156104a657fe5b146104b057600080fd5b6102ed816105fb565b60008054600160a060020a031633146104d157600080fd5b50600160a060020a03811660009081526001602052604090205430318111156104f657fe5b600160a060020a0382166000818152600160205260408082208290555183156108fc0291849190818181858888f1935050505015801561053a573d6000803e3d6000fd5b50604080518281529051600160a060020a038416917f7084f5476618d8e60b11ef0d7d3f06914655adb8793e28ff7f018d4c76d505d5919081900360200190a25050565b600160a060020a038116151561059357600080fd5b60008054604051600160a060020a03808516939216917f8be0079c531659141344cd1fd0a4f28419497f9722a3daafe3b4186f6b6457e091a36000805473ffffffffffffffffffffffffffffffffffffffff1916600160a060020a0392909216919091179055565b60008054600160a060020a0316331461061357600080fd5b50600160a060020a038116600090815260016020526040902054349061063f908263ffffffff61069516565b600160a060020a038316600081815260016020908152604091829020939093558051848152905191927f2da466a7b24304f47e87fa2e1e5a81b9831ce54fec19055ce277ca2f39ba42c492918290030190a25050565b818101828110156106a257fe5b929150505600a165627a7a723058206a163c863dc945ba4ed9a8104ed4166eebab79afdbc9677de48facea640d65830029",
  "source": "pragma solidity ^0.4.23;\n\nimport \"./ConditionalEscrow.sol\";\nimport \"../ownership/Ownable.sol\";\n\n\n/**\n * @title RefundEscrow\n * @dev Escrow that holds funds for a beneficiary, deposited from multiple parties.\n * The contract owner may close the deposit period, and allow for either withdrawal\n * by the beneficiary, or refunds to the depositors.\n */\ncontract RefundEscrow is Ownable, ConditionalEscrow {\n  enum State { Active, Refunding, Closed }\n\n  event Closed();\n  event RefundsEnabled();\n\n  State public state;\n  address public beneficiary;\n\n  /**\n   * @dev Constructor.\n   * @param _beneficiary The beneficiary of the deposits.\n   */\n  constructor(address _beneficiary) public {\n    require(_beneficiary != address(0));\n    beneficiary = _beneficiary;\n    state = State.Active;\n  }\n\n  /**\n   * @dev Stores funds that may later be refunded.\n   * @param _refundee The address funds will be sent to if a refund occurs.\n   */\n  function deposit(address _refundee) public payable {\n    require(state == State.Active);\n    super.deposit(_refundee);\n  }\n\n  /**\n   * @dev Allows for the beneficiary to withdraw their funds, rejecting\n   * further deposits.\n   */\n  function close() public onlyOwner {\n    require(state == State.Active);\n    state = State.Closed;\n    emit Closed();\n  }\n\n  /**\n   * @dev Allows for refunds to take place, rejecting further deposits.\n   */\n  function enableRefunds() public onlyOwner {\n    require(state == State.Active);\n    state = State.Refunding;\n    emit RefundsEnabled();\n  }\n\n  /**\n   * @dev Withdraws the beneficiary's funds.\n   */\n  function beneficiaryWithdraw() public {\n    require(state == State.Closed);\n    beneficiary.transfer(address(this).balance);\n  }\n\n  /**\n   * @dev Returns whether refundees can withdraw their deposits (be refunded).\n   */\n  function withdrawalAllowed(address _payee) public view returns (bool) {\n    return state == State.Refunding;\n  }\n}\n",
  "sourcePath": "openzeppelin-solidity/contracts/payment/RefundEscrow.sol",
  "compiler": {
    "name": "solc",
    "version": "0.4.24+commit.e67f0147.Emscripten.clang"
  },
  "schemaVersion": "2.0.1",
  "updatedAt": "2018-10-19T15:02:35.419Z"
}