{
  "contractName": "ZepTokenTimedCrowdsale",
  "abi": [
    {
      "constant": true,
      "inputs": [],
      "name": "_investorMinCap",
      "outputs": [
        {
          "name": "",
          "type": "uint256"
        }
      ],
      "payable": false,
      "stateMutability": "view",
      "type": "function"
    },
    {
      "constant": true,
      "inputs": [
        {
          "name": "",
          "type": "address"
        }
      ],
      "name": "_investorContributions",
      "outputs": [
        {
          "name": "",
          "type": "uint256"
        }
      ],
      "payable": false,
      "stateMutability": "view",
      "type": "function"
    },
    {
      "constant": true,
      "inputs": [],
      "name": "hasClosed",
      "outputs": [
        {
          "name": "",
          "type": "bool"
        }
      ],
      "payable": false,
      "stateMutability": "view",
      "type": "function"
    },
    {
      "constant": true,
      "inputs": [],
      "name": "rate",
      "outputs": [
        {
          "name": "",
          "type": "uint256"
        }
      ],
      "payable": false,
      "stateMutability": "view",
      "type": "function"
    },
    {
      "constant": true,
      "inputs": [],
      "name": "cap",
      "outputs": [
        {
          "name": "",
          "type": "uint256"
        }
      ],
      "payable": false,
      "stateMutability": "view",
      "type": "function"
    },
    {
      "constant": true,
      "inputs": [],
      "name": "weiRaised",
      "outputs": [
        {
          "name": "",
          "type": "uint256"
        }
      ],
      "payable": false,
      "stateMutability": "view",
      "type": "function"
    },
    {
      "constant": true,
      "inputs": [],
      "name": "closingTime",
      "outputs": [
        {
          "name": "",
          "type": "uint256"
        }
      ],
      "payable": false,
      "stateMutability": "view",
      "type": "function"
    },
    {
      "constant": true,
      "inputs": [],
      "name": "capReached",
      "outputs": [
        {
          "name": "",
          "type": "bool"
        }
      ],
      "payable": false,
      "stateMutability": "view",
      "type": "function"
    },
    {
      "constant": true,
      "inputs": [],
      "name": "wallet",
      "outputs": [
        {
          "name": "",
          "type": "address"
        }
      ],
      "payable": false,
      "stateMutability": "view",
      "type": "function"
    },
    {
      "constant": true,
      "inputs": [],
      "name": "openingTime",
      "outputs": [
        {
          "name": "",
          "type": "uint256"
        }
      ],
      "payable": false,
      "stateMutability": "view",
      "type": "function"
    },
    {
      "constant": true,
      "inputs": [],
      "name": "_investorMaxCap",
      "outputs": [
        {
          "name": "",
          "type": "uint256"
        }
      ],
      "payable": false,
      "stateMutability": "view",
      "type": "function"
    },
    {
      "constant": false,
      "inputs": [
        {
          "name": "_beneficiary",
          "type": "address"
        }
      ],
      "name": "buyTokens",
      "outputs": [],
      "payable": true,
      "stateMutability": "payable",
      "type": "function"
    },
    {
      "constant": true,
      "inputs": [],
      "name": "token",
      "outputs": [
        {
          "name": "",
          "type": "address"
        }
      ],
      "payable": false,
      "stateMutability": "view",
      "type": "function"
    },
    {
      "inputs": [
        {
          "name": "rate",
          "type": "uint256"
        },
        {
          "name": "wallet",
          "type": "address"
        },
        {
          "name": "token",
          "type": "address"
        },
        {
          "name": "cap",
          "type": "uint256"
        },
        {
          "name": "openingTime",
          "type": "uint256"
        },
        {
          "name": "closingTime",
          "type": "uint256"
        }
      ],
      "payable": false,
      "stateMutability": "nonpayable",
      "type": "constructor"
    },
    {
      "payable": true,
      "stateMutability": "payable",
      "type": "fallback"
    },
    {
      "anonymous": false,
      "inputs": [
        {
          "indexed": true,
          "name": "purchaser",
          "type": "address"
        },
        {
          "indexed": true,
          "name": "beneficiary",
          "type": "address"
        },
        {
          "indexed": false,
          "name": "value",
          "type": "uint256"
        },
        {
          "indexed": false,
          "name": "amount",
          "type": "uint256"
        }
      ],
      "name": "TokenPurchase",
      "type": "event"
    },
    {
      "constant": true,
      "inputs": [
        {
          "name": "contributor",
          "type": "address"
        }
      ],
      "name": "getUserContribution",
      "outputs": [
        {
          "name": "",
          "type": "uint256"
        }
      ],
      "payable": false,
      "stateMutability": "view",
      "type": "function"
    }
  ],
  "bytecode": "0x6080604052662386f26fc10000600755680d8d726b7177a8000060085534801561002857600080fd5b5060405160c0806106f083398101604090815281516020830151918301516060840151608085015160a090950151929491929091908181848888886000831161007057600080fd5b600160a060020a038216151561008557600080fd5b600160a060020a038116151561009a57600080fd5b60029290925560018054600160a060020a03928316600160a060020a0319918216179091556000805492909316911617815581116100d757600080fd5b600455428210156100e757600080fd5b818110156100f457600080fd5b6005919091556006555050505050506105de806101126000396000f3006080604052600436106100cf5763ffffffff7c01000000000000000000000000000000000000000000000000000000006000350416630ff9028581146100da57806314b3e327146101015780631515bc2b146101225780632c4e722e1461014b578063355274ea146101605780634042b66f146101755780634b6753bc1461018a5780634f9359451461019f578063521eb273146101b4578063b7a8807c146101e5578063bb8b2b47146101fa578063d7a026e71461021b578063ec8ac4d814610230578063fc0c546a14610244575b6100d833610259565b005b3480156100e657600080fd5b506100ef6102fb565b60408051918252519081900360200190f35b34801561010d57600080fd5b506100ef600160a060020a0360043516610301565b34801561012e57600080fd5b50610137610313565b604080519115158252519081900360200190f35b34801561015757600080fd5b506100ef61031b565b34801561016c57600080fd5b506100ef610321565b34801561018157600080fd5b506100ef610327565b34801561019657600080fd5b506100ef61032d565b3480156101ab57600080fd5b50610137610333565b3480156101c057600080fd5b506101c961033e565b60408051600160a060020a039092168252519081900360200190f35b3480156101f157600080fd5b506100ef61034d565b34801561020657600080fd5b506100ef600160a060020a0360043516610353565b34801561022757600080fd5b506100ef61036e565b6100d8600160a060020a0360043516610259565b34801561025057600080fd5b506101c9610374565b3460006102668383610383565b61026f826103f7565b600354909150610285908363ffffffff61041416565b6003556102928382610421565b60408051838152602081018390528151600160a060020a0386169233927f623b3804fa71d67900d064613da8f94b9617215ee90799290593e1745087ad18929081900390910190a36102e4838361042b565b6102ec61042f565b6102f6838361042b565b505050565b60075481565b60096020526000908152604090205481565b600654421190565b60025481565b60045481565b60035481565b60065481565b600454600354101590565b600154600160a060020a031681565b60055481565b600160a060020a031660009081526009602052604090205490565b60085481565b600054600160a060020a031681565b600080610390848461046b565b600160a060020a03841660009081526009602052604090205491506103b58284610414565b6007549091508110156103c757600080fd5b6008548111156103d657600080fd5b600160a060020a039093166000908152600960205260409020929092555050565b600061040e6002548361049490919063ffffffff16565b92915050565b8181018281101561040e57fe5b61042b82826104bd565b5050565b600154604051600160a060020a03909116903480156108fc02916000818181858888f19350505050158015610468573d6000803e3d6000fd5b50565b600554421015801561047f57506006544211155b151561048a57600080fd5b61042b8282610566565b60008215156104a55750600061040e565b508181028183828115156104b557fe5b041461040e57fe5b60008054604080517f40c10f19000000000000000000000000000000000000000000000000000000008152600160a060020a03868116600483015260248201869052915191909216926340c10f1992604480820193602093909283900390910190829087803b15801561052f57600080fd5b505af1158015610543573d6000803e3d6000fd5b505050506040513d602081101561055957600080fd5b5051151561042b57600080fd5b6105708282610591565b600454600354610586908363ffffffff61041416565b111561042b57600080fd5b600160a060020a03821615156105a657600080fd5b80151561042b57600080fd00a165627a7a723058203e3c983e35ea4c72f26b006bceea6a5ba644dd6e80b8b50bceebad5c6f7e04330029",
  "source": "/**\n * @title ZepTokenCrowdsaleTimed.sol\n * @dev This is the crowd sale contract that will sell the ZepTokens.  It uses the\n * Crowdsale capabilities provided by openzeppelin-solidity.\n * It can also be used with other MintableTokens.\n */\n\npragma solidity ^0.4.24;\n\nimport \"openzeppelin-solidity/contracts/crowdsale/Crowdsale.sol\";\nimport \"openzeppelin-solidity/contracts/crowdsale/emission/MintedCrowdsale.sol\";\nimport \"openzeppelin-solidity/contracts/crowdsale/validation/CappedCrowdsale.sol\";\nimport \"openzeppelin-solidity/contracts/crowdsale/validation/TimedCrowdsale.sol\";\nimport \"openzeppelin-solidity/contracts/math/SafeMath.sol\";\n\ncontract ZepTokenTimedCrowdsale is MintedCrowdsale, CappedCrowdsale, TimedCrowdsale {\n\n  // Set investor limits.  Min and max on an aggregate basis.\n  // Track limits in the mapping.\n  uint256 public _investorMinCap = 10000000000000000; // 0.01 ETH\n  uint256 public _investorMaxCap = 250000000000000000000; // 250 ETH\n  mapping(address => uint256) public _investorContributions;\n\n  /**\n   *  @dev Constructor Constructor does nothing except call into constructors it inherits from.\n   *  @param rate conversion rate between ETH and this token.\n   *  @param wallet address for creator of the crowdsale\n   *  @param token the ERC20 token this crowdsale will manage and create\n   *  @param cap Maximum number of tokens that can be created.\n   *  @param openingTime Start time for tokens to be available for sale\n   *  @param closingTime Time when token will no longer be avaialble for sale\n   */\n  constructor(\n    uint256 rate,\n    address wallet,\n    ERC20 token,\n    uint256 cap,\n    uint256 openingTime,\n    uint256 closingTime\n  )\n    Crowdsale(rate, wallet, token)\n    CappedCrowdsale(cap)\n    TimedCrowdsale(openingTime, closingTime)\n    public\n  {\n  }\n\n  /**\n   *  @dev _preValidatePurchase Extends validation of parent\n   *  Add additional validation with a minimum and maximum contribution allows\n   *  from each of the investors.  The mapping _investorContributions keeps track\n   *  of how much each investor address has contributed.\n   *  @param beneficiary address trying to purchase tokens\n   *  @param weiAmount amount the beneficiary is attempting to purchase\n   */\n  function _preValidatePurchase(\n    address beneficiary,\n    uint weiAmount\n    ) internal\n  {\n    super._preValidatePurchase(beneficiary, weiAmount);\n    uint256 existingContributions = _investorContributions[beneficiary];\n    uint256 newContribution = SafeMath.add(existingContributions, weiAmount);\n    require(newContribution >= _investorMinCap);\n    require(newContribution <= _investorMaxCap);\n    _investorContributions[beneficiary] = newContribution;\n  }\n\n  /**\n   *  @dev getUserContribution Provides access to how much an address has contributed to this crowdsale\n   *  @param contributor Address of entity (validated seperately via KYC portal) that contributed to the crowd sale.\n   *  @return Amount of tokens the contributor has purchased so far.\n   */\n  function getUserContribution(address contributor)\n    public view returns(uint256)\n  {\n    return(_investorContributions[contributor]);\n  }\n\n} // End of contract ZepTokenCrowdsale\n",
  "sourcePath": "/Users/yglm/Documents/Development/Ethereum/DappUniversity/ZepCoin/contracts/ZepTokenTimedCrowdsale.sol",
  "compiler": {
    "name": "solc",
    "version": "0.4.24+commit.e67f0147.Emscripten.clang"
  },
  "schemaVersion": "2.0.1",
  "updatedAt": "2018-10-18T20:31:00.965Z"
}