{
  "contractName": "ZepTokenCrowdsale",
  "abi": [
    {
      "constant": true,
      "inputs": [],
      "name": "_investorMinCap",
      "outputs": [
        {
          "name": "",
          "type": "uint256"
        }
      ],
      "payable": false,
      "stateMutability": "view",
      "type": "function"
    },
    {
      "constant": true,
      "inputs": [
        {
          "name": "",
          "type": "address"
        }
      ],
      "name": "_investorContributions",
      "outputs": [
        {
          "name": "",
          "type": "uint256"
        }
      ],
      "payable": false,
      "stateMutability": "view",
      "type": "function"
    },
    {
      "constant": true,
      "inputs": [],
      "name": "rate",
      "outputs": [
        {
          "name": "",
          "type": "uint256"
        }
      ],
      "payable": false,
      "stateMutability": "view",
      "type": "function"
    },
    {
      "constant": true,
      "inputs": [],
      "name": "cap",
      "outputs": [
        {
          "name": "",
          "type": "uint256"
        }
      ],
      "payable": false,
      "stateMutability": "view",
      "type": "function"
    },
    {
      "constant": true,
      "inputs": [],
      "name": "weiRaised",
      "outputs": [
        {
          "name": "",
          "type": "uint256"
        }
      ],
      "payable": false,
      "stateMutability": "view",
      "type": "function"
    },
    {
      "constant": true,
      "inputs": [],
      "name": "capReached",
      "outputs": [
        {
          "name": "",
          "type": "bool"
        }
      ],
      "payable": false,
      "stateMutability": "view",
      "type": "function"
    },
    {
      "constant": true,
      "inputs": [],
      "name": "wallet",
      "outputs": [
        {
          "name": "",
          "type": "address"
        }
      ],
      "payable": false,
      "stateMutability": "view",
      "type": "function"
    },
    {
      "constant": true,
      "inputs": [],
      "name": "_investorMaxCap",
      "outputs": [
        {
          "name": "",
          "type": "uint256"
        }
      ],
      "payable": false,
      "stateMutability": "view",
      "type": "function"
    },
    {
      "constant": false,
      "inputs": [
        {
          "name": "_beneficiary",
          "type": "address"
        }
      ],
      "name": "buyTokens",
      "outputs": [],
      "payable": true,
      "stateMutability": "payable",
      "type": "function"
    },
    {
      "constant": true,
      "inputs": [],
      "name": "token",
      "outputs": [
        {
          "name": "",
          "type": "address"
        }
      ],
      "payable": false,
      "stateMutability": "view",
      "type": "function"
    },
    {
      "inputs": [
        {
          "name": "rate",
          "type": "uint256"
        },
        {
          "name": "wallet",
          "type": "address"
        },
        {
          "name": "token",
          "type": "address"
        },
        {
          "name": "cap",
          "type": "uint256"
        }
      ],
      "payable": false,
      "stateMutability": "nonpayable",
      "type": "constructor"
    },
    {
      "payable": true,
      "stateMutability": "payable",
      "type": "fallback"
    },
    {
      "anonymous": false,
      "inputs": [
        {
          "indexed": true,
          "name": "purchaser",
          "type": "address"
        },
        {
          "indexed": true,
          "name": "beneficiary",
          "type": "address"
        },
        {
          "indexed": false,
          "name": "value",
          "type": "uint256"
        },
        {
          "indexed": false,
          "name": "amount",
          "type": "uint256"
        }
      ],
      "name": "TokenPurchase",
      "type": "event"
    },
    {
      "constant": true,
      "inputs": [
        {
          "name": "contributor",
          "type": "address"
        }
      ],
      "name": "getUserContribution",
      "outputs": [
        {
          "name": "",
          "type": "uint256"
        }
      ],
      "payable": false,
      "stateMutability": "view",
      "type": "function"
    }
  ],
  "bytecode": "0x6080604052662386f26fc10000600555680d8d726b7177a8000060065534801561002857600080fd5b5060405160808061061e8339810160409081528151602083015191830151606090930151909290808484846000831161006057600080fd5b600160a060020a038216151561007557600080fd5b600160a060020a038116151561008a57600080fd5b60029290925560018054600160a060020a03928316600160a060020a0319918216179091556000805492909316911617815581116100c757600080fd5b60045550505050610541806100dd6000396000f3006080604052600436106100ae5763ffffffff7c01000000000000000000000000000000000000000000000000000000006000350416630ff9028581146100b957806314b3e327146100e05780632c4e722e14610101578063355274ea146101165780634042b66f1461012b5780634f93594514610140578063521eb27314610169578063bb8b2b471461019a578063d7a026e7146101bb578063ec8ac4d8146101d0578063fc0c546a146101e4575b6100b7336101f9565b005b3480156100c557600080fd5b506100ce61029b565b60408051918252519081900360200190f35b3480156100ec57600080fd5b506100ce600160a060020a03600435166102a1565b34801561010d57600080fd5b506100ce6102b3565b34801561012257600080fd5b506100ce6102b9565b34801561013757600080fd5b506100ce6102bf565b34801561014c57600080fd5b506101556102c5565b604080519115158252519081900360200190f35b34801561017557600080fd5b5061017e6102d0565b60408051600160a060020a039092168252519081900360200190f35b3480156101a657600080fd5b506100ce600160a060020a03600435166102df565b3480156101c757600080fd5b506100ce6102fa565b6100b7600160a060020a03600435166101f9565b3480156101f057600080fd5b5061017e610300565b346000610206838361030f565b61020f82610383565b600354909150610225908363ffffffff6103a016565b60035561023283826103ad565b60408051838152602081018390528151600160a060020a0386169233927f623b3804fa71d67900d064613da8f94b9617215ee90799290593e1745087ad18929081900390910190a361028483836103b7565b61028c6103bb565b61029683836103b7565b505050565b60055481565b60076020526000908152604090205481565b60025481565b60045481565b60035481565b600454600354101590565b600154600160a060020a031681565b600160a060020a031660009081526007602052604090205490565b60065481565b600054600160a060020a031681565b60008061031c84846103f7565b600160a060020a038416600090815260076020526040902054915061034182846103a0565b60055490915081101561035357600080fd5b60065481111561036257600080fd5b600160a060020a039093166000908152600760205260409020929092555050565b600061039a6002548361042290919063ffffffff16565b92915050565b8181018281101561039a57fe5b6103b7828261044b565b5050565b600154604051600160a060020a03909116903480156108fc02916000818181858888f193505050501580156103f4573d6000803e3d6000fd5b50565b61040182826104f4565b600454600354610417908363ffffffff6103a016565b11156103b757600080fd5b60008215156104335750600061039a565b5081810281838281151561044357fe5b041461039a57fe5b60008054604080517f40c10f19000000000000000000000000000000000000000000000000000000008152600160a060020a03868116600483015260248201869052915191909216926340c10f1992604480820193602093909283900390910190829087803b1580156104bd57600080fd5b505af11580156104d1573d6000803e3d6000fd5b505050506040513d60208110156104e757600080fd5b505115156103b757600080fd5b600160a060020a038216151561050957600080fd5b8015156103b757600080fd00a165627a7a723058206fa5b9efd5f81ea56778328ebcd7b4c017bb3f0acb7e9902cdd895b761fa8b770029",
  "source": "/**\n * @title ZepTokenCrowdsale.sol\n * @dev This is the crowd sale contract that will sell the ZepTokens.  It uses the\n * Crowdsale capabilities provided by openzeppelin-solidity.\n * It can also be used with other MintableTokens.\n */\n\npragma solidity ^0.4.24;\n\nimport \"openzeppelin-solidity/contracts/crowdsale/Crowdsale.sol\";\nimport \"openzeppelin-solidity/contracts/crowdsale/emission/MintedCrowdsale.sol\";\nimport \"openzeppelin-solidity/contracts/crowdsale/validation/CappedCrowdsale.sol\";\nimport \"openzeppelin-solidity/contracts/math/SafeMath.sol\";\n\ncontract ZepTokenCrowdsale is MintedCrowdsale, CappedCrowdsale {\n\n  // Set investor limits.  Min and max on an aggregate basis.\n  // Track limits in the mapping.\n  uint256 public _investorMinCap = 10000000000000000; // 0.01 ETH\n  uint256 public _investorMaxCap = 250000000000000000000; // 250 ETH\n  mapping(address => uint256) public _investorContributions;\n\n  /**\n   *  @dev Constructor Constructor does nothing except call into constructors it inherits from.\n   *  @param rate conversion rate between ETH and this token.\n   *  @param wallet address for creator of the crowdsale\n   *  @param token the ERC20 token this crowdsale will manage and create\n   *  @param cap Maximum number of tokens that can be created.\n   */\n  constructor(uint256 rate, address wallet, ERC20 token, uint256 cap)\n    Crowdsale(rate, wallet, token)\n    CappedCrowdsale(cap)\n    public\n  {\n  }\n\n  /**\n   *  @dev _preValidatePurchase Extends validation of parent\n   *  Add additional validation with a minimum and maximum contribution allows\n   *  from each of the investors.  The mapping _investorContributions keeps track\n   *  of how much each investor address has contributed.\n   *  @param beneficiary address trying to purchase tokens\n   *  @param weiAmount amount the beneficiary is attempting to purchase\n   */\n  function _preValidatePurchase(\n    address beneficiary,\n    uint weiAmount\n    ) internal\n  {\n    super._preValidatePurchase(beneficiary, weiAmount);\n    uint256 existingContributions = _investorContributions[beneficiary];\n    uint256 newContribution = SafeMath.add(existingContributions, weiAmount);\n    require(newContribution >= _investorMinCap);\n    require(newContribution <= _investorMaxCap);\n    _investorContributions[beneficiary] = newContribution;\n  }\n\n  /**\n   *  @dev getUserContribution Provides access to how much an address has contributed to this crowdsale\n   *  @param contributor Address of entity (validated seperately via KYC portal) that contributed to the crowd sale.\n   *  @return Amount of tokens the contributor has purchased so far.\n   */\n  function getUserContribution(address contributor)\n    public view returns(uint256)\n  {\n    return(_investorContributions[contributor]);\n  }\n\n} // End of contract ZepTokenCrowdsale\n",
  "sourcePath": "/Users/yglm/Documents/Development/Ethereum/DappUniversity/ZepCoin/contracts/ZepTokenCrowdsale.sol",
  "compiler": {
    "name": "solc",
    "version": "0.4.24+commit.e67f0147.Emscripten.clang"
  },
  "schemaVersion": "2.0.1",
  "updatedAt": "2018-10-19T13:38:40.659Z"
}