{
  "contractName": "ZepTokenTimedCrowdsale",
  "abi": [
    {
      "constant": true,
      "inputs": [
        {
          "name": "_operator",
          "type": "address"
        },
        {
          "name": "_role",
          "type": "string"
        }
      ],
      "name": "checkRole",
      "outputs": [],
      "payable": false,
      "stateMutability": "view",
      "type": "function"
    },
    {
      "constant": true,
      "inputs": [],
      "name": "_investorMinCap",
      "outputs": [
        {
          "name": "",
          "type": "uint256"
        }
      ],
      "payable": false,
      "stateMutability": "view",
      "type": "function"
    },
    {
      "constant": true,
      "inputs": [
        {
          "name": "",
          "type": "address"
        }
      ],
      "name": "_investorContributions",
      "outputs": [
        {
          "name": "",
          "type": "uint256"
        }
      ],
      "payable": false,
      "stateMutability": "view",
      "type": "function"
    },
    {
      "constant": true,
      "inputs": [],
      "name": "hasClosed",
      "outputs": [
        {
          "name": "",
          "type": "bool"
        }
      ],
      "payable": false,
      "stateMutability": "view",
      "type": "function"
    },
    {
      "constant": true,
      "inputs": [],
      "name": "ROLE_WHITELISTED",
      "outputs": [
        {
          "name": "",
          "type": "string"
        }
      ],
      "payable": false,
      "stateMutability": "view",
      "type": "function"
    },
    {
      "constant": true,
      "inputs": [
        {
          "name": "_operator",
          "type": "address"
        },
        {
          "name": "_role",
          "type": "string"
        }
      ],
      "name": "hasRole",
      "outputs": [
        {
          "name": "",
          "type": "bool"
        }
      ],
      "payable": false,
      "stateMutability": "view",
      "type": "function"
    },
    {
      "constant": false,
      "inputs": [
        {
          "name": "_operators",
          "type": "address[]"
        }
      ],
      "name": "removeAddressesFromWhitelist",
      "outputs": [],
      "payable": false,
      "stateMutability": "nonpayable",
      "type": "function"
    },
    {
      "constant": false,
      "inputs": [
        {
          "name": "_operator",
          "type": "address"
        }
      ],
      "name": "removeAddressFromWhitelist",
      "outputs": [],
      "payable": false,
      "stateMutability": "nonpayable",
      "type": "function"
    },
    {
      "constant": true,
      "inputs": [],
      "name": "rate",
      "outputs": [
        {
          "name": "",
          "type": "uint256"
        }
      ],
      "payable": false,
      "stateMutability": "view",
      "type": "function"
    },
    {
      "constant": true,
      "inputs": [],
      "name": "cap",
      "outputs": [
        {
          "name": "",
          "type": "uint256"
        }
      ],
      "payable": false,
      "stateMutability": "view",
      "type": "function"
    },
    {
      "constant": true,
      "inputs": [],
      "name": "goal",
      "outputs": [
        {
          "name": "",
          "type": "uint256"
        }
      ],
      "payable": false,
      "stateMutability": "view",
      "type": "function"
    },
    {
      "constant": true,
      "inputs": [],
      "name": "weiRaised",
      "outputs": [
        {
          "name": "",
          "type": "uint256"
        }
      ],
      "payable": false,
      "stateMutability": "view",
      "type": "function"
    },
    {
      "constant": true,
      "inputs": [],
      "name": "closingTime",
      "outputs": [
        {
          "name": "",
          "type": "uint256"
        }
      ],
      "payable": false,
      "stateMutability": "view",
      "type": "function"
    },
    {
      "constant": false,
      "inputs": [],
      "name": "finalize",
      "outputs": [],
      "payable": false,
      "stateMutability": "nonpayable",
      "type": "function"
    },
    {
      "constant": true,
      "inputs": [],
      "name": "capReached",
      "outputs": [
        {
          "name": "",
          "type": "bool"
        }
      ],
      "payable": false,
      "stateMutability": "view",
      "type": "function"
    },
    {
      "constant": true,
      "inputs": [],
      "name": "wallet",
      "outputs": [
        {
          "name": "",
          "type": "address"
        }
      ],
      "payable": false,
      "stateMutability": "view",
      "type": "function"
    },
    {
      "constant": false,
      "inputs": [],
      "name": "renounceOwnership",
      "outputs": [],
      "payable": false,
      "stateMutability": "nonpayable",
      "type": "function"
    },
    {
      "constant": false,
      "inputs": [
        {
          "name": "_operator",
          "type": "address"
        }
      ],
      "name": "addAddressToWhitelist",
      "outputs": [],
      "payable": false,
      "stateMutability": "nonpayable",
      "type": "function"
    },
    {
      "constant": true,
      "inputs": [],
      "name": "goalReached",
      "outputs": [
        {
          "name": "",
          "type": "bool"
        }
      ],
      "payable": false,
      "stateMutability": "view",
      "type": "function"
    },
    {
      "constant": true,
      "inputs": [],
      "name": "isFinalized",
      "outputs": [
        {
          "name": "",
          "type": "bool"
        }
      ],
      "payable": false,
      "stateMutability": "view",
      "type": "function"
    },
    {
      "constant": true,
      "inputs": [],
      "name": "owner",
      "outputs": [
        {
          "name": "",
          "type": "address"
        }
      ],
      "payable": false,
      "stateMutability": "view",
      "type": "function"
    },
    {
      "constant": true,
      "inputs": [
        {
          "name": "_operator",
          "type": "address"
        }
      ],
      "name": "whitelist",
      "outputs": [
        {
          "name": "",
          "type": "bool"
        }
      ],
      "payable": false,
      "stateMutability": "view",
      "type": "function"
    },
    {
      "constant": false,
      "inputs": [],
      "name": "claimRefund",
      "outputs": [],
      "payable": false,
      "stateMutability": "nonpayable",
      "type": "function"
    },
    {
      "constant": true,
      "inputs": [],
      "name": "openingTime",
      "outputs": [
        {
          "name": "",
          "type": "uint256"
        }
      ],
      "payable": false,
      "stateMutability": "view",
      "type": "function"
    },
    {
      "constant": true,
      "inputs": [
        {
          "name": "contributor",
          "type": "address"
        }
      ],
      "name": "getUserContribution",
      "outputs": [
        {
          "name": "",
          "type": "uint256"
        }
      ],
      "payable": false,
      "stateMutability": "view",
      "type": "function"
    },
    {
      "constant": true,
      "inputs": [],
      "name": "_investorMaxCap",
      "outputs": [
        {
          "name": "",
          "type": "uint256"
        }
      ],
      "payable": false,
      "stateMutability": "view",
      "type": "function"
    },
    {
      "constant": false,
      "inputs": [
        {
          "name": "_operators",
          "type": "address[]"
        }
      ],
      "name": "addAddressesToWhitelist",
      "outputs": [],
      "payable": false,
      "stateMutability": "nonpayable",
      "type": "function"
    },
    {
      "constant": false,
      "inputs": [
        {
          "name": "_beneficiary",
          "type": "address"
        }
      ],
      "name": "buyTokens",
      "outputs": [],
      "payable": true,
      "stateMutability": "payable",
      "type": "function"
    },
    {
      "constant": false,
      "inputs": [
        {
          "name": "_newOwner",
          "type": "address"
        }
      ],
      "name": "transferOwnership",
      "outputs": [],
      "payable": false,
      "stateMutability": "nonpayable",
      "type": "function"
    },
    {
      "constant": true,
      "inputs": [],
      "name": "token",
      "outputs": [
        {
          "name": "",
          "type": "address"
        }
      ],
      "payable": false,
      "stateMutability": "view",
      "type": "function"
    },
    {
      "inputs": [
        {
          "name": "rate",
          "type": "uint256"
        },
        {
          "name": "wallet",
          "type": "address"
        },
        {
          "name": "token",
          "type": "address"
        },
        {
          "name": "cap",
          "type": "uint256"
        },
        {
          "name": "goal",
          "type": "uint256"
        },
        {
          "name": "openingTime",
          "type": "uint256"
        },
        {
          "name": "closingTime",
          "type": "uint256"
        }
      ],
      "payable": false,
      "stateMutability": "nonpayable",
      "type": "constructor"
    },
    {
      "payable": true,
      "stateMutability": "payable",
      "type": "fallback"
    },
    {
      "anonymous": false,
      "inputs": [],
      "name": "Finalized",
      "type": "event"
    },
    {
      "anonymous": false,
      "inputs": [
        {
          "indexed": true,
          "name": "purchaser",
          "type": "address"
        },
        {
          "indexed": true,
          "name": "beneficiary",
          "type": "address"
        },
        {
          "indexed": false,
          "name": "value",
          "type": "uint256"
        },
        {
          "indexed": false,
          "name": "amount",
          "type": "uint256"
        }
      ],
      "name": "TokenPurchase",
      "type": "event"
    },
    {
      "anonymous": false,
      "inputs": [
        {
          "indexed": true,
          "name": "operator",
          "type": "address"
        },
        {
          "indexed": false,
          "name": "role",
          "type": "string"
        }
      ],
      "name": "RoleAdded",
      "type": "event"
    },
    {
      "anonymous": false,
      "inputs": [
        {
          "indexed": true,
          "name": "operator",
          "type": "address"
        },
        {
          "indexed": false,
          "name": "role",
          "type": "string"
        }
      ],
      "name": "RoleRemoved",
      "type": "event"
    },
    {
      "anonymous": false,
      "inputs": [
        {
          "indexed": true,
          "name": "previousOwner",
          "type": "address"
        }
      ],
      "name": "OwnershipRenounced",
      "type": "event"
    },
    {
      "anonymous": false,
      "inputs": [
        {
          "indexed": true,
          "name": "previousOwner",
          "type": "address"
        },
        {
          "indexed": true,
          "name": "newOwner",
          "type": "address"
        }
      ],
      "name": "OwnershipTransferred",
      "type": "event"
    }
  ],
  "bytecode": "0x60806040526008805460ff19169055662386f26fc10000600c819055680d8d726b7177a80000600d819055600f919091556010553480156200004057600080fd5b5060405160e08062001bca83398101604090815281516020830151918301516060840151608085015160a086015160c09096015160008054600160a060020a0319163317815594969394929391928790879087908790879082908290899089908990899089908311620000b257600080fd5b600160a060020a0382161515620000c857600080fd5b600160a060020a0381161515620000de57600080fd5b60049290925560038054600160a060020a03928316600160a060020a03199182161790915560028054929093169116179055428210156200011e57600080fd5b818110156200012c57600080fd5b600691909155600755600081116200014357600080fd5b600354600160a060020a031662000159620001dc565b600160a060020a03909116815260405190819003602001906000f08015801562000187573d6000803e3d6000fd5b50600a8054600160a060020a031916600160a060020a039290921691909117905560095560008111620001b957600080fd5b600b5581811115620001ca57600080fd5b505050505050505050505050620001ed565b604051610757806200147383390190565b61127680620001fd6000396000f3006080604052600436106101665763ffffffff60e060020a6000350416630988ca8c81146101715780630ff90285146101d857806314b3e327146101ff5780631515bc2b1461022057806318b919e914610249578063217fe6c6146102d357806324953eaa1461033a578063286dd3f51461038f5780632c4e722e146103b0578063355274ea146103c557806340193883146103da5780634042b66f146103ef5780634b6753bc146104045780634bb278f3146104195780634f9359451461042e578063521eb27314610443578063715018a6146104745780637b9417c8146104895780637d3d6522146104aa5780638d4e4083146104bf5780638da5cb5b146104d45780639b19251a146104e9578063b5545a3c1461050a578063b7a8807c1461051f578063bb8b2b4714610534578063d7a026e714610555578063e2ec6ec31461056a578063ec8ac4d8146105bf578063f2fde38b146105d3578063fc0c546a146105f4575b61016f33610609565b005b34801561017d57600080fd5b5060408051602060046024803582810135601f810185900485028601850190965285855261016f958335600160a060020a03169536956044949193909101919081908401838280828437509497506106ab9650505050505050565b3480156101e457600080fd5b506101ed610719565b60408051918252519081900360200190f35b34801561020b57600080fd5b506101ed600160a060020a036004351661071f565b34801561022c57600080fd5b50610235610731565b604080519115158252519081900360200190f35b34801561025557600080fd5b5061025e610739565b6040805160208082528351818301528351919283929083019185019080838360005b83811015610298578181015183820152602001610280565b50505050905090810190601f1680156102c55780820380516001836020036101000a031916815260200191505b509250505060405180910390f35b3480156102df57600080fd5b5060408051602060046024803582810135601f8101859004850286018501909652858552610235958335600160a060020a031695369560449491939091019190819084018382808284375094975061075e9650505050505050565b34801561034657600080fd5b506040805160206004803580820135838102808601850190965280855261016f953695939460249493850192918291850190849080828437509497506107d39650505050505050565b34801561039b57600080fd5b5061016f600160a060020a0360043516610820565b3480156103bc57600080fd5b506101ed610867565b3480156103d157600080fd5b506101ed61086d565b3480156103e657600080fd5b506101ed610873565b3480156103fb57600080fd5b506101ed610879565b34801561041057600080fd5b506101ed61087f565b34801561042557600080fd5b5061016f610885565b34801561043a57600080fd5b506102356108ff565b34801561044f57600080fd5b5061045861090a565b60408051600160a060020a039092168252519081900360200190f35b34801561048057600080fd5b5061016f610919565b34801561049557600080fd5b5061016f600160a060020a0360043516610985565b3480156104b657600080fd5b506102356109c9565b3480156104cb57600080fd5b506102356109d4565b3480156104e057600080fd5b506104586109dd565b3480156104f557600080fd5b50610235600160a060020a03600435166109ec565b34801561051657600080fd5b5061016f610a1b565b34801561052b57600080fd5b506101ed610abd565b34801561054057600080fd5b506101ed600160a060020a0360043516610ac3565b34801561056157600080fd5b506101ed610ade565b34801561057657600080fd5b506040805160206004803580820135838102808601850190965280855261016f95369593946024949385019291829185019084908082843750949750610ae49650505050505050565b61016f600160a060020a0360043516610609565b3480156105df57600080fd5b5061016f600160a060020a0360043516610b31565b34801561060057600080fd5b50610458610b51565b3460006106168383610b60565b61061f82610bd4565b600554909150610635908363ffffffff610beb16565b6005556106428382610bf8565b60408051838152602081018390528151600160a060020a0386169233927f623b3804fa71d67900d064613da8f94b9617215ee90799290593e1745087ad18929081900390910190a36106948383610715565b61069c610c02565b6106a68383610715565b505050565b610715826001836040518082805190602001908083835b602083106106e15780518252601f1990920191602091820191016106c2565b51815160209384036101000a6000190180199092169116179052920194855250604051938490030190922092915050610c83565b5050565b600f5481565b60116020526000908152604090205481565b600754421190565b604080518082019091526009815260008051602061122b833981519152602082015281565b60006107ca836001846040518082805190602001908083835b602083106107965780518252601f199092019160209182019101610777565b51815160209384036101000a6000190180199092169116179052920194855250604051938490030190922092915050610c98565b90505b92915050565b60008054600160a060020a031633146107eb57600080fd5b5060005b815181101561071557610818828281518110151561080957fe5b90602001906020020151610820565b6001016107ef565b600054600160a060020a0316331461083757600080fd5b6108648160408051908101604052806009815260200160008051602061122b833981519152815250610cb7565b50565b60045481565b600b5481565b60095481565b60055481565b60075481565b600054600160a060020a0316331461089c57600080fd5b60085460ff16156108ac57600080fd5b6108b4610731565b15156108bf57600080fd5b6108c7610dc8565b6040517f6823b073d48d6e3a7d385eeb601452d680e74bb46afe3255a7d778f3a9b1768190600090a16008805460ff19166001179055565b600b54600554101590565b600354600160a060020a031681565b600054600160a060020a0316331461093057600080fd5b60008054604051600160a060020a03909116917ff8df31144d9c2f0f6b59d69b8b98abd5459d07f2742c4df920b25aae33c6482091a26000805473ffffffffffffffffffffffffffffffffffffffff19169055565b600054600160a060020a0316331461099c57600080fd5b6108648160408051908101604052806009815260200160008051602061122b833981519152815250610f22565b600954600554101590565b60085460ff1681565b600054600160a060020a031681565b60006107cd8260408051908101604052806009815260200160008051602061122b83398151915281525061075e565b60085460ff161515610a2c57600080fd5b610a346109c9565b15610a3e57600080fd5b600a54604080517f51cff8d90000000000000000000000000000000000000000000000000000000081523360048201529051600160a060020a03909216916351cff8d99160248082019260009290919082900301818387803b158015610aa357600080fd5b505af1158015610ab7573d6000803e3d6000fd5b50505050565b60065481565b600160a060020a03166000908152600e602052604090205490565b60105481565b60008054600160a060020a03163314610afc57600080fd5b5060005b815181101561071557610b298282815181101515610b1a57fe5b90602001906020020151610985565b600101610b00565b600054600160a060020a03163314610b4857600080fd5b61086481610ff4565b600254600160a060020a031681565b600080610b6d8484611071565b600160a060020a0384166000908152600e60205260409020549150610b928284610beb565b600c54909150811015610ba457600080fd5b600d54811115610bb357600080fd5b600160a060020a039093166000908152600e60205260409020929092555050565b60006107cd6004548361109c90919063ffffffff16565b818101828110156107cd57fe5b61071582826110c5565b600a54604080517ff340fa010000000000000000000000000000000000000000000000000000000081523360048201529051600160a060020a039092169163f340fa01913491602480830192600092919082900301818588803b158015610c6857600080fd5b505af1158015610c7c573d6000803e3d6000fd5b5050505050565b610c8d8282610c98565b151561071557600080fd5b600160a060020a03166000908152602091909152604090205460ff1690565b610d21826001836040518082805190602001908083835b60208310610ced5780518252601f199092019160209182019101610cce565b51815160209384036101000a600019018019909216911617905292019485525060405193849003019092209291505061116b565b81600160a060020a03167fd211483f91fc6eff862467f8de606587a30c8fc9981056f051b897a418df803a826040518080602001828103825283818151815260200191508051906020019080838360005b83811015610d8a578181015183820152602001610d72565b50505050905090810190601f168015610db75780820380516001836020036101000a031916815260200191505b509250505060405180910390a25050565b610dd06109c9565b15610eb057600a60009054906101000a9004600160a060020a0316600160a060020a03166343d726d66040518163ffffffff1660e060020a028152600401600060405180830381600087803b158015610e2857600080fd5b505af1158015610e3c573d6000803e3d6000fd5b50505050600a60009054906101000a9004600160a060020a0316600160a060020a0316639af6549a6040518163ffffffff1660e060020a028152600401600060405180830381600087803b158015610e9357600080fd5b505af1158015610ea7573d6000803e3d6000fd5b50505050610f1c565b600a60009054906101000a9004600160a060020a0316600160a060020a0316638c52dc416040518163ffffffff1660e060020a028152600401600060405180830381600087803b158015610f0357600080fd5b505af1158015610f17573d6000803e3d6000fd5b505050505b610f205b565b610f8c826001836040518082805190602001908083835b60208310610f585780518252601f199092019160209182019101610f39565b51815160209384036101000a600019018019909216911617905292019485525060405193849003019092209291505061118d565b81600160a060020a03167fbfec83d64eaa953f2708271a023ab9ee82057f8f3578d548c1a4ba0b5b7004898260405180806020018281038252838181518152602001915080519060200190808383600083811015610d8a578181015183820152602001610d72565b600160a060020a038116151561100957600080fd5b60008054604051600160a060020a03808516939216917f8be0079c531659141344cd1fd0a4f28419497f9722a3daafe3b4186f6b6457e091a36000805473ffffffffffffffffffffffffffffffffffffffff1916600160a060020a0392909216919091179055565b61107b82826111b2565b600b54600554611091908363ffffffff610beb16565b111561071557600080fd5b60008215156110ad575060006107cd565b508181028183828115156110bd57fe5b04146107cd57fe5b600254604080517f40c10f19000000000000000000000000000000000000000000000000000000008152600160a060020a03858116600483015260248201859052915191909216916340c10f199160448083019260209291908290030181600087803b15801561113457600080fd5b505af1158015611148573d6000803e3d6000fd5b505050506040513d602081101561115e57600080fd5b5051151561071557600080fd5b600160a060020a0316600090815260209190915260409020805460ff19169055565b600160a060020a0316600090815260209190915260409020805460ff19166001179055565b816111e08160408051908101604052806009815260200160008051602061122b8339815191528152506106ab565b6106a6838360065442101580156111f957506007544211155b151561120457600080fd5b6107158282600160a060020a038216151561121e57600080fd5b80151561071557600080fd0077686974656c6973740000000000000000000000000000000000000000000000a165627a7a72305820e3454ea62ea69de46f66f79e5e014b1f9c305e47cb0f6f68182e55c1e4c6f4730029608060405234801561001057600080fd5b50604051602080610757833981016040525160008054600160a060020a03191633179055600160a060020a038116151561004957600080fd5b6002805460ff19600160a060020a03939093166101000261010060a860020a0319909116179190911690556106d4806100836000396000f3006080604052600436106100b95763ffffffff7c010000000000000000000000000000000000000000000000000000000060003504166338af3eed81146100be57806343d726d6146100ef57806351cff8d914610106578063685ca19414610127578063715018a61461015c5780638c52dc41146101715780638da5cb5b146101865780639af6549a1461019b578063c19d93fb146101b0578063e3a9db1a146101e9578063f2fde38b1461021c578063f340fa011461023d575b600080fd5b3480156100ca57600080fd5b506100d3610251565b60408051600160a060020a039092168252519081900360200190f35b3480156100fb57600080fd5b50610104610265565b005b34801561011257600080fd5b50610104600160a060020a03600435166102d0565b34801561013357600080fd5b50610148600160a060020a03600435166102f0565b604080519115158252519081900360200190f35b34801561016857600080fd5b5061010461030c565b34801561017d57600080fd5b50610104610378565b34801561019257600080fd5b506100d36103e4565b3480156101a757600080fd5b506101046103f3565b3480156101bc57600080fd5b506101c561044f565b604051808260028111156101d557fe5b60ff16815260200191505060405180910390f35b3480156101f557600080fd5b5061020a600160a060020a0360043516610458565b60408051918252519081900360200190f35b34801561022857600080fd5b50610104600160a060020a0360043516610473565b610104600160a060020a0360043516610493565b6002546101009004600160a060020a031681565b600054600160a060020a0316331461027c57600080fd5b60006002805460ff169081111561028f57fe5b1461029957600080fd5b6002805460ff1916811790556040517f1cdde67b72a90f19919ac732a437ac2f7a10fc128d28c2a6e525d89ce5cd9d3a90600090a1565b6102d9816102f0565b15156102e457600080fd5b6102ed816104b9565b50565b600060016002805460ff169081111561030557fe5b1492915050565b600054600160a060020a0316331461032357600080fd5b60008054604051600160a060020a03909116917ff8df31144d9c2f0f6b59d69b8b98abd5459d07f2742c4df920b25aae33c6482091a26000805473ffffffffffffffffffffffffffffffffffffffff19169055565b600054600160a060020a0316331461038f57600080fd5b60006002805460ff16908111156103a257fe5b146103ac57600080fd5b6002805460ff191660011790556040517f599d8e5a83cffb867d051598c4d70e805d59802d8081c1c7d6dffc5b6aca2b8990600090a1565b600054600160a060020a031681565b6002805460ff168181111561040457fe5b1461040e57600080fd5b600254604051600160a060020a036101009092049190911690303180156108fc02916000818181858888f193505050501580156102ed573d6000803e3d6000fd5b60025460ff1681565b600160a060020a031660009081526001602052604090205490565b600054600160a060020a0316331461048a57600080fd5b6102ed8161057e565b60006002805460ff16908111156104a657fe5b146104b057600080fd5b6102ed816105fb565b60008054600160a060020a031633146104d157600080fd5b50600160a060020a03811660009081526001602052604090205430318111156104f657fe5b600160a060020a0382166000818152600160205260408082208290555183156108fc0291849190818181858888f1935050505015801561053a573d6000803e3d6000fd5b50604080518281529051600160a060020a038416917f7084f5476618d8e60b11ef0d7d3f06914655adb8793e28ff7f018d4c76d505d5919081900360200190a25050565b600160a060020a038116151561059357600080fd5b60008054604051600160a060020a03808516939216917f8be0079c531659141344cd1fd0a4f28419497f9722a3daafe3b4186f6b6457e091a36000805473ffffffffffffffffffffffffffffffffffffffff1916600160a060020a0392909216919091179055565b60008054600160a060020a0316331461061357600080fd5b50600160a060020a038116600090815260016020526040902054349061063f908263ffffffff61069516565b600160a060020a038316600081815260016020908152604091829020939093558051848152905191927f2da466a7b24304f47e87fa2e1e5a81b9831ce54fec19055ce277ca2f39ba42c492918290030190a25050565b818101828110156106a257fe5b929150505600a165627a7a723058206a163c863dc945ba4ed9a8104ed4166eebab79afdbc9677de48facea640d65830029",
  "source": "/**\n * @title ZepTokenCrowdsaleTimed.sol\n * @dev This is the crowd sale contract that will sell the ZepTokens.  It uses the\n * Crowdsale capabilities provided by openzeppelin-solidity.\n * It can also be used with other MintableTokens.\n */\n\npragma solidity ^0.4.24;\n\nimport \"./ZepTokenCrowdsale.sol\";\nimport \"openzeppelin-solidity/contracts/crowdsale/Crowdsale.sol\";\nimport \"openzeppelin-solidity/contracts/crowdsale/emission/MintedCrowdsale.sol\";\nimport \"openzeppelin-solidity/contracts/crowdsale/validation/CappedCrowdsale.sol\";\nimport \"openzeppelin-solidity/contracts/crowdsale/validation/TimedCrowdsale.sol\";\nimport \"openzeppelin-solidity/contracts/math/SafeMath.sol\";\n\ncontract ZepTokenTimedCrowdsale is ZepTokenCrowdsale {\n\n  // Set investor limits.  Min and max on an aggregate basis.\n  // Track limits in the mapping.\n  uint256 public _investorMinCap = 10000000000000000; // 0.01 ETH\n  uint256 public _investorMaxCap = 250000000000000000000; // 250 ETH\n  mapping(address => uint256) public _investorContributions;\n\n  /**\n   *  @dev Constructor Constructor does nothing except call into constructors it inherits from.\n   *  @param rate conversion rate between ETH and this token.\n   *  @param wallet address for creator of the crowdsale\n   *  @param token the ERC20 token this crowdsale will manage and create\n   *  @param cap Maximum number of tokens that can be created.\n   *  @param goal Minimum amount to be raised for the crowdsale to complete successfully\n   *  @param openingTime Start time for tokens to be available for sale\n   *  @param closingTime Time when token will no longer be avaialble for sale\n   */\n  constructor(\n    uint256 rate,\n    address wallet,\n    ERC20 token,\n    uint256 cap,\n    uint256 goal,\n    uint256 openingTime,\n    uint256 closingTime\n  )\n    ZepTokenCrowdsale(rate, wallet, token, cap, goal)\n    TimedCrowdsale(openingTime, closingTime)\n    public\n  {\n  }\n\n} // End of contract ZepTokenTimedCrowdsale\n",
  "sourcePath": "/Users/yglm/Documents/Development/Ethereum/DappUniversity/ZepCoin/contracts/ZepTokenTimedCrowdsale.sol",
  "compiler": {
    "name": "solc",
    "version": "0.4.24+commit.e67f0147.Emscripten.clang"
  },
  "schemaVersion": "2.0.1",
  "updatedAt": "2018-10-19T14:44:21.550Z"
}