{
  "contractName": "ZepTokenCrowdsale",
  "abi": [
    {
      "constant": true,
      "inputs": [
        {
          "name": "_operator",
          "type": "address"
        },
        {
          "name": "_role",
          "type": "string"
        }
      ],
      "name": "checkRole",
      "outputs": [],
      "payable": false,
      "stateMutability": "view",
      "type": "function"
    },
    {
      "constant": true,
      "inputs": [],
      "name": "_investorMinCap",
      "outputs": [
        {
          "name": "",
          "type": "uint256"
        }
      ],
      "payable": false,
      "stateMutability": "view",
      "type": "function"
    },
    {
      "constant": true,
      "inputs": [
        {
          "name": "",
          "type": "address"
        }
      ],
      "name": "_investorContributions",
      "outputs": [
        {
          "name": "",
          "type": "uint256"
        }
      ],
      "payable": false,
      "stateMutability": "view",
      "type": "function"
    },
    {
      "constant": true,
      "inputs": [],
      "name": "hasClosed",
      "outputs": [
        {
          "name": "",
          "type": "bool"
        }
      ],
      "payable": false,
      "stateMutability": "view",
      "type": "function"
    },
    {
      "constant": true,
      "inputs": [],
      "name": "ROLE_WHITELISTED",
      "outputs": [
        {
          "name": "",
          "type": "string"
        }
      ],
      "payable": false,
      "stateMutability": "view",
      "type": "function"
    },
    {
      "constant": true,
      "inputs": [
        {
          "name": "_operator",
          "type": "address"
        },
        {
          "name": "_role",
          "type": "string"
        }
      ],
      "name": "hasRole",
      "outputs": [
        {
          "name": "",
          "type": "bool"
        }
      ],
      "payable": false,
      "stateMutability": "view",
      "type": "function"
    },
    {
      "constant": false,
      "inputs": [
        {
          "name": "_operators",
          "type": "address[]"
        }
      ],
      "name": "removeAddressesFromWhitelist",
      "outputs": [],
      "payable": false,
      "stateMutability": "nonpayable",
      "type": "function"
    },
    {
      "constant": false,
      "inputs": [
        {
          "name": "_operator",
          "type": "address"
        }
      ],
      "name": "removeAddressFromWhitelist",
      "outputs": [],
      "payable": false,
      "stateMutability": "nonpayable",
      "type": "function"
    },
    {
      "constant": true,
      "inputs": [],
      "name": "rate",
      "outputs": [
        {
          "name": "",
          "type": "uint256"
        }
      ],
      "payable": false,
      "stateMutability": "view",
      "type": "function"
    },
    {
      "constant": true,
      "inputs": [],
      "name": "cap",
      "outputs": [
        {
          "name": "",
          "type": "uint256"
        }
      ],
      "payable": false,
      "stateMutability": "view",
      "type": "function"
    },
    {
      "constant": true,
      "inputs": [],
      "name": "goal",
      "outputs": [
        {
          "name": "",
          "type": "uint256"
        }
      ],
      "payable": false,
      "stateMutability": "view",
      "type": "function"
    },
    {
      "constant": true,
      "inputs": [],
      "name": "weiRaised",
      "outputs": [
        {
          "name": "",
          "type": "uint256"
        }
      ],
      "payable": false,
      "stateMutability": "view",
      "type": "function"
    },
    {
      "constant": true,
      "inputs": [],
      "name": "closingTime",
      "outputs": [
        {
          "name": "",
          "type": "uint256"
        }
      ],
      "payable": false,
      "stateMutability": "view",
      "type": "function"
    },
    {
      "constant": false,
      "inputs": [],
      "name": "finalize",
      "outputs": [],
      "payable": false,
      "stateMutability": "nonpayable",
      "type": "function"
    },
    {
      "constant": true,
      "inputs": [],
      "name": "capReached",
      "outputs": [
        {
          "name": "",
          "type": "bool"
        }
      ],
      "payable": false,
      "stateMutability": "view",
      "type": "function"
    },
    {
      "constant": true,
      "inputs": [],
      "name": "wallet",
      "outputs": [
        {
          "name": "",
          "type": "address"
        }
      ],
      "payable": false,
      "stateMutability": "view",
      "type": "function"
    },
    {
      "constant": false,
      "inputs": [],
      "name": "renounceOwnership",
      "outputs": [],
      "payable": false,
      "stateMutability": "nonpayable",
      "type": "function"
    },
    {
      "constant": false,
      "inputs": [
        {
          "name": "_operator",
          "type": "address"
        }
      ],
      "name": "addAddressToWhitelist",
      "outputs": [],
      "payable": false,
      "stateMutability": "nonpayable",
      "type": "function"
    },
    {
      "constant": true,
      "inputs": [],
      "name": "goalReached",
      "outputs": [
        {
          "name": "",
          "type": "bool"
        }
      ],
      "payable": false,
      "stateMutability": "view",
      "type": "function"
    },
    {
      "constant": true,
      "inputs": [],
      "name": "isFinalized",
      "outputs": [
        {
          "name": "",
          "type": "bool"
        }
      ],
      "payable": false,
      "stateMutability": "view",
      "type": "function"
    },
    {
      "constant": true,
      "inputs": [],
      "name": "owner",
      "outputs": [
        {
          "name": "",
          "type": "address"
        }
      ],
      "payable": false,
      "stateMutability": "view",
      "type": "function"
    },
    {
      "constant": true,
      "inputs": [
        {
          "name": "_operator",
          "type": "address"
        }
      ],
      "name": "whitelist",
      "outputs": [
        {
          "name": "",
          "type": "bool"
        }
      ],
      "payable": false,
      "stateMutability": "view",
      "type": "function"
    },
    {
      "constant": true,
      "inputs": [],
      "name": "phase",
      "outputs": [
        {
          "name": "",
          "type": "uint8"
        }
      ],
      "payable": false,
      "stateMutability": "view",
      "type": "function"
    },
    {
      "constant": false,
      "inputs": [],
      "name": "claimRefund",
      "outputs": [],
      "payable": false,
      "stateMutability": "nonpayable",
      "type": "function"
    },
    {
      "constant": true,
      "inputs": [],
      "name": "openingTime",
      "outputs": [
        {
          "name": "",
          "type": "uint256"
        }
      ],
      "payable": false,
      "stateMutability": "view",
      "type": "function"
    },
    {
      "constant": true,
      "inputs": [],
      "name": "_investorMaxCap",
      "outputs": [
        {
          "name": "",
          "type": "uint256"
        }
      ],
      "payable": false,
      "stateMutability": "view",
      "type": "function"
    },
    {
      "constant": false,
      "inputs": [
        {
          "name": "_operators",
          "type": "address[]"
        }
      ],
      "name": "addAddressesToWhitelist",
      "outputs": [],
      "payable": false,
      "stateMutability": "nonpayable",
      "type": "function"
    },
    {
      "constant": false,
      "inputs": [
        {
          "name": "_beneficiary",
          "type": "address"
        }
      ],
      "name": "buyTokens",
      "outputs": [],
      "payable": true,
      "stateMutability": "payable",
      "type": "function"
    },
    {
      "constant": false,
      "inputs": [
        {
          "name": "_newOwner",
          "type": "address"
        }
      ],
      "name": "transferOwnership",
      "outputs": [],
      "payable": false,
      "stateMutability": "nonpayable",
      "type": "function"
    },
    {
      "constant": true,
      "inputs": [],
      "name": "token",
      "outputs": [
        {
          "name": "",
          "type": "address"
        }
      ],
      "payable": false,
      "stateMutability": "view",
      "type": "function"
    },
    {
      "inputs": [
        {
          "name": "rate",
          "type": "uint256"
        },
        {
          "name": "wallet",
          "type": "address"
        },
        {
          "name": "token",
          "type": "address"
        },
        {
          "name": "cap",
          "type": "uint256"
        },
        {
          "name": "goal",
          "type": "uint256"
        },
        {
          "name": "openingTime",
          "type": "uint256"
        },
        {
          "name": "closingTime",
          "type": "uint256"
        }
      ],
      "payable": false,
      "stateMutability": "nonpayable",
      "type": "constructor"
    },
    {
      "payable": true,
      "stateMutability": "payable",
      "type": "fallback"
    },
    {
      "anonymous": false,
      "inputs": [],
      "name": "Finalized",
      "type": "event"
    },
    {
      "anonymous": false,
      "inputs": [
        {
          "indexed": true,
          "name": "purchaser",
          "type": "address"
        },
        {
          "indexed": true,
          "name": "beneficiary",
          "type": "address"
        },
        {
          "indexed": false,
          "name": "value",
          "type": "uint256"
        },
        {
          "indexed": false,
          "name": "amount",
          "type": "uint256"
        }
      ],
      "name": "TokenPurchase",
      "type": "event"
    },
    {
      "anonymous": false,
      "inputs": [
        {
          "indexed": true,
          "name": "operator",
          "type": "address"
        },
        {
          "indexed": false,
          "name": "role",
          "type": "string"
        }
      ],
      "name": "RoleAdded",
      "type": "event"
    },
    {
      "anonymous": false,
      "inputs": [
        {
          "indexed": true,
          "name": "operator",
          "type": "address"
        },
        {
          "indexed": false,
          "name": "role",
          "type": "string"
        }
      ],
      "name": "RoleRemoved",
      "type": "event"
    },
    {
      "anonymous": false,
      "inputs": [
        {
          "indexed": true,
          "name": "previousOwner",
          "type": "address"
        }
      ],
      "name": "OwnershipRenounced",
      "type": "event"
    },
    {
      "anonymous": false,
      "inputs": [
        {
          "indexed": true,
          "name": "previousOwner",
          "type": "address"
        },
        {
          "indexed": true,
          "name": "newOwner",
          "type": "address"
        }
      ],
      "name": "OwnershipTransferred",
      "type": "event"
    },
    {
      "constant": true,
      "inputs": [
        {
          "name": "contributor",
          "type": "address"
        }
      ],
      "name": "getUserContribution",
      "outputs": [
        {
          "name": "",
          "type": "uint256"
        }
      ],
      "payable": false,
      "stateMutability": "view",
      "type": "function"
    },
    {
      "constant": false,
      "inputs": [
        {
          "name": "newPhase",
          "type": "uint256"
        }
      ],
      "name": "setCrowdsalePhase",
      "outputs": [],
      "payable": false,
      "stateMutability": "nonpayable",
      "type": "function"
    }
  ],
  "bytecode": "0x60806040526009805460ff19908116909155662386f26fc10000600c55680d8d726b7177a80000600d55600f805490911690553480156200003f57600080fd5b5060405160e08062001d3583398101604090815281516020830151918301516060840151608085015160a086015160c09096015160008054600160a060020a03191633178155949693949293919283908390839087908b908b908b908311620000a757600080fd5b600160a060020a0382161515620000bd57600080fd5b600160a060020a0381161515620000d357600080fd5b60049290925560038054600160a060020a03928316600160a060020a03199182161790915560028054929093169116179055600081116200011357600080fd5b600655428210156200012457600080fd5b818110156200013257600080fd5b600791909155600855600081116200014957600080fd5b600354600160a060020a03166200015f620001cc565b600160a060020a03909116815260405190819003602001906000f0801580156200018d573d6000803e3d6000fd5b50600b8054600160a060020a031916600160a060020a0392909216919091179055600a5583831115620001bf57600080fd5b50505050505050620001dd565b60405161075780620015de83390190565b6113f180620001ed6000396000f30060806040526004361061017c5763ffffffff60e060020a6000350416630988ca8c81146101875780630ff90285146101ee57806314b3e327146102155780631515bc2b1461023657806318b919e91461025f578063217fe6c6146102e957806324953eaa14610350578063286dd3f5146103a55780632c4e722e146103c6578063355274ea146103db57806340193883146103f05780634042b66f146104055780634b6753bc1461041a5780634bb278f31461042f5780634f93594514610444578063521eb27314610459578063715018a61461048a5780637b9417c81461049f5780637d3d6522146104c057806380d146f8146104d55780638d4e4083146104ed5780638da5cb5b146105025780639b19251a14610517578063b1c9fe6e14610538578063b5545a3c14610571578063b7a8807c14610586578063bb8b2b471461059b578063d7a026e7146105bc578063e2ec6ec3146105d1578063ec8ac4d814610626578063f2fde38b1461063a578063fc0c546a1461065b575b61018533610670565b005b34801561019357600080fd5b5060408051602060046024803582810135601f8101859004850286018501909652858552610185958335600160a060020a03169536956044949193909101919081908401838280828437509497506107129650505050505050565b3480156101fa57600080fd5b50610203610780565b60408051918252519081900360200190f35b34801561022157600080fd5b50610203600160a060020a0360043516610786565b34801561024257600080fd5b5061024b610798565b604080519115158252519081900360200190f35b34801561026b57600080fd5b506102746107a0565b6040805160208082528351818301528351919283929083019185019080838360005b838110156102ae578181015183820152602001610296565b50505050905090810190601f1680156102db5780820380516001836020036101000a031916815260200191505b509250505060405180910390f35b3480156102f557600080fd5b5060408051602060046024803582810135601f810185900485028601850190965285855261024b958335600160a060020a03169536956044949193909101919081908401838280828437509497506107c59650505050505050565b34801561035c57600080fd5b50604080516020600480358082013583810280860185019096528085526101859536959394602494938501929182918501908490808284375094975061083a9650505050505050565b3480156103b157600080fd5b50610185600160a060020a0360043516610887565b3480156103d257600080fd5b506102036108ce565b3480156103e757600080fd5b506102036108d4565b3480156103fc57600080fd5b506102036108da565b34801561041157600080fd5b506102036108e0565b34801561042657600080fd5b506102036108e6565b34801561043b57600080fd5b506101856108ec565b34801561045057600080fd5b5061024b610966565b34801561046557600080fd5b5061046e610971565b60408051600160a060020a039092168252519081900360200190f35b34801561049657600080fd5b50610185610980565b3480156104ab57600080fd5b50610185600160a060020a03600435166109ec565b3480156104cc57600080fd5b5061024b610a30565b3480156104e157600080fd5b50610185600435610a3b565b3480156104f957600080fd5b5061024b610ac4565b34801561050e57600080fd5b5061046e610acd565b34801561052357600080fd5b5061024b600160a060020a0360043516610adc565b34801561054457600080fd5b5061054d610b0b565b6040518082600181111561055d57fe5b60ff16815260200191505060405180910390f35b34801561057d57600080fd5b50610185610b14565b34801561059257600080fd5b50610203610bb6565b3480156105a757600080fd5b50610203600160a060020a0360043516610bbc565b3480156105c857600080fd5b50610203610bd7565b3480156105dd57600080fd5b506040805160206004803580820135838102808601850190965280855261018595369593946024949385019291829185019084908082843750949750610bdd9650505050505050565b610185600160a060020a0360043516610670565b34801561064657600080fd5b50610185600160a060020a0360043516610c2a565b34801561066757600080fd5b5061046e610c4a565b34600061067d8383610c59565b61068682610ccd565b60055490915061069c908363ffffffff610ce416565b6005556106a98382610cf1565b60408051838152602081018390528151600160a060020a0386169233927f623b3804fa71d67900d064613da8f94b9617215ee90799290593e1745087ad18929081900390910190a36106fb838361077c565b610703610cfb565b61070d838361077c565b505050565b61077c826001836040518082805190602001908083835b602083106107485780518252601f199092019160209182019101610729565b51815160209384036101000a6000190180199092169116179052920194855250604051938490030190922092915050610d76565b5050565b600c5481565b600e6020526000908152604090205481565b600854421190565b60408051808201909152600981526000805160206113a6833981519152602082015281565b6000610831836001846040518082805190602001908083835b602083106107fd5780518252601f1990920191602091820191016107de565b51815160209384036101000a6000190180199092169116179052920194855250604051938490030190922092915050610d8b565b90505b92915050565b60008054600160a060020a0316331461085257600080fd5b5060005b815181101561077c5761087f828281518110151561087057fe5b90602001906020020151610887565b600101610856565b600054600160a060020a0316331461089e57600080fd5b6108cb816040805190810160405280600981526020016000805160206113a6833981519152815250610daa565b50565b60045481565b60065481565b600a5481565b60055481565b60085481565b600054600160a060020a0316331461090357600080fd5b60095460ff161561091357600080fd5b61091b610798565b151561092657600080fd5b61092e610ebb565b6040517f6823b073d48d6e3a7d385eeb601452d680e74bb46afe3255a7d778f3a9b1768190600090a16009805460ff19166001179055565b600654600554101590565b600354600160a060020a031681565b600054600160a060020a0316331461099757600080fd5b60008054604051600160a060020a03909116917ff8df31144d9c2f0f6b59d69b8b98abd5459d07f2742c4df920b25aae33c6482091a26000805473ffffffffffffffffffffffffffffffffffffffff19169055565b600054600160a060020a03163314610a0357600080fd5b6108cb816040805190810160405280600981526020016000805160206113a6833981519152815250611017565b600a54600554101590565b600054600160a060020a03163314610a5257600080fd5b801515610a6857600f805460ff19169055610a7f565b8060011415610a7f57600f805460ff191660011790555b6000600f5460ff166001811115610a9257fe5b1415610aa25760fa6004556108cb565b6001600f5460ff166001811115610ab557fe5b14156108cb576101f460045550565b60095460ff1681565b600054600160a060020a031681565b6000610834826040805190810160405280600981526020016000805160206113a68339815191528152506107c5565b600f5460ff1681565b60095460ff161515610b2557600080fd5b610b2d610a30565b15610b3757600080fd5b600b54604080517f51cff8d90000000000000000000000000000000000000000000000000000000081523360048201529051600160a060020a03909216916351cff8d99160248082019260009290919082900301818387803b158015610b9c57600080fd5b505af1158015610bb0573d6000803e3d6000fd5b50505050565b60075481565b600160a060020a03166000908152600e602052604090205490565b600d5481565b60008054600160a060020a03163314610bf557600080fd5b5060005b815181101561077c57610c228282815181101515610c1357fe5b906020019060200201516109ec565b600101610bf9565b600054600160a060020a03163314610c4157600080fd5b6108cb816110e9565b600254600160a060020a031681565b600080610c668484611166565b600160a060020a0384166000908152600e60205260409020549150610c8b8284610ce4565b600c54909150811015610c9d57600080fd5b600d54811115610cac57600080fd5b600160a060020a039093166000908152600e60205260409020929092555050565b60006108346004548361119e90919063ffffffff16565b8181018281101561083457fe5b61077c82826111c7565b6000600f5460ff166001811115610d0e57fe5b1415610d5357600354604051600160a060020a03909116903480156108fc02916000818181858888f19350505050158015610d4d573d6000803e3d6000fd5b50610d74565b6001600f5460ff166001811115610d6657fe5b1415610d7457610d7461126d565b565b610d808282610d8b565b151561077c57600080fd5b600160a060020a03166000908152602091909152604090205460ff1690565b610e14826001836040518082805190602001908083835b60208310610de05780518252601f199092019160209182019101610dc1565b51815160209384036101000a60001901801990921691161790529201948552506040519384900301909220929150506112ee565b81600160a060020a03167fd211483f91fc6eff862467f8de606587a30c8fc9981056f051b897a418df803a826040518080602001828103825283818151815260200191508051906020019080838360005b83811015610e7d578181015183820152602001610e65565b50505050905090810190601f168015610eaa5780820380516001836020036101000a031916815260200191505b509250505060405180910390a25050565b610ec3610a30565b15610fa357600b60009054906101000a9004600160a060020a0316600160a060020a03166343d726d66040518163ffffffff1660e060020a028152600401600060405180830381600087803b158015610f1b57600080fd5b505af1158015610f2f573d6000803e3d6000fd5b50505050600b60009054906101000a9004600160a060020a0316600160a060020a0316639af6549a6040518163ffffffff1660e060020a028152600401600060405180830381600087803b158015610f8657600080fd5b505af1158015610f9a573d6000803e3d6000fd5b5050505061100f565b600b60009054906101000a9004600160a060020a0316600160a060020a0316638c52dc416040518163ffffffff1660e060020a028152600401600060405180830381600087803b158015610ff657600080fd5b505af115801561100a573d6000803e3d6000fd5b505050505b610d74610d74565b611081826001836040518082805190602001908083835b6020831061104d5780518252601f19909201916020918201910161102e565b51815160209384036101000a6000190180199092169116179052920194855250604051938490030190922092915050611310565b81600160a060020a03167fbfec83d64eaa953f2708271a023ab9ee82057f8f3578d548c1a4ba0b5b7004898260405180806020018281038252838181518152602001915080519060200190808383600083811015610e7d578181015183820152602001610e65565b600160a060020a03811615156110fe57600080fd5b60008054604051600160a060020a03808516939216917f8be0079c531659141344cd1fd0a4f28419497f9722a3daafe3b4186f6b6457e091a36000805473ffffffffffffffffffffffffffffffffffffffff1916600160a060020a0392909216919091179055565b81611194816040805190810160405280600981526020016000805160206113a6833981519152815250610712565b61070d8383611335565b60008215156111af57506000610834565b508181028183828115156111bf57fe5b041461083457fe5b600254604080517f40c10f19000000000000000000000000000000000000000000000000000000008152600160a060020a03858116600483015260248201859052915191909216916340c10f199160448083019260209291908290030181600087803b15801561123657600080fd5b505af115801561124a573d6000803e3d6000fd5b505050506040513d602081101561126057600080fd5b5051151561077c57600080fd5b600b54604080517ff340fa010000000000000000000000000000000000000000000000000000000081523360048201529051600160a060020a039092169163f340fa01913491602480830192600092919082900301818588803b1580156112d357600080fd5b505af11580156112e7573d6000803e3d6000fd5b5050505050565b600160a060020a0316600090815260209190915260409020805460ff19169055565b600160a060020a0316600090815260209190915260409020805460ff19166001179055565b600754421015801561134957506008544211155b151561135457600080fd5b61077c82826113638282611384565b600654600554611379908363ffffffff610ce416565b111561077c57600080fd5b600160a060020a038216151561139957600080fd5b80151561077c57600080fd0077686974656c6973740000000000000000000000000000000000000000000000a165627a7a723058201507dda22bd5871f82cad0598a87cd570402787443f1df2d77cd8af4be63e15a0029608060405234801561001057600080fd5b50604051602080610757833981016040525160008054600160a060020a03191633179055600160a060020a038116151561004957600080fd5b6002805460ff19600160a060020a03939093166101000261010060a860020a0319909116179190911690556106d4806100836000396000f3006080604052600436106100b95763ffffffff7c010000000000000000000000000000000000000000000000000000000060003504166338af3eed81146100be57806343d726d6146100ef57806351cff8d914610106578063685ca19414610127578063715018a61461015c5780638c52dc41146101715780638da5cb5b146101865780639af6549a1461019b578063c19d93fb146101b0578063e3a9db1a146101e9578063f2fde38b1461021c578063f340fa011461023d575b600080fd5b3480156100ca57600080fd5b506100d3610251565b60408051600160a060020a039092168252519081900360200190f35b3480156100fb57600080fd5b50610104610265565b005b34801561011257600080fd5b50610104600160a060020a03600435166102d0565b34801561013357600080fd5b50610148600160a060020a03600435166102f0565b604080519115158252519081900360200190f35b34801561016857600080fd5b5061010461030c565b34801561017d57600080fd5b50610104610378565b34801561019257600080fd5b506100d36103e4565b3480156101a757600080fd5b506101046103f3565b3480156101bc57600080fd5b506101c561044f565b604051808260028111156101d557fe5b60ff16815260200191505060405180910390f35b3480156101f557600080fd5b5061020a600160a060020a0360043516610458565b60408051918252519081900360200190f35b34801561022857600080fd5b50610104600160a060020a0360043516610473565b610104600160a060020a0360043516610493565b6002546101009004600160a060020a031681565b600054600160a060020a0316331461027c57600080fd5b60006002805460ff169081111561028f57fe5b1461029957600080fd5b6002805460ff1916811790556040517f1cdde67b72a90f19919ac732a437ac2f7a10fc128d28c2a6e525d89ce5cd9d3a90600090a1565b6102d9816102f0565b15156102e457600080fd5b6102ed816104b9565b50565b600060016002805460ff169081111561030557fe5b1492915050565b600054600160a060020a0316331461032357600080fd5b60008054604051600160a060020a03909116917ff8df31144d9c2f0f6b59d69b8b98abd5459d07f2742c4df920b25aae33c6482091a26000805473ffffffffffffffffffffffffffffffffffffffff19169055565b600054600160a060020a0316331461038f57600080fd5b60006002805460ff16908111156103a257fe5b146103ac57600080fd5b6002805460ff191660011790556040517f599d8e5a83cffb867d051598c4d70e805d59802d8081c1c7d6dffc5b6aca2b8990600090a1565b600054600160a060020a031681565b6002805460ff168181111561040457fe5b1461040e57600080fd5b600254604051600160a060020a036101009092049190911690303180156108fc02916000818181858888f193505050501580156102ed573d6000803e3d6000fd5b60025460ff1681565b600160a060020a031660009081526001602052604090205490565b600054600160a060020a0316331461048a57600080fd5b6102ed8161057e565b60006002805460ff16908111156104a657fe5b146104b057600080fd5b6102ed816105fb565b60008054600160a060020a031633146104d157600080fd5b50600160a060020a03811660009081526001602052604090205430318111156104f657fe5b600160a060020a0382166000818152600160205260408082208290555183156108fc0291849190818181858888f1935050505015801561053a573d6000803e3d6000fd5b50604080518281529051600160a060020a038416917f7084f5476618d8e60b11ef0d7d3f06914655adb8793e28ff7f018d4c76d505d5919081900360200190a25050565b600160a060020a038116151561059357600080fd5b60008054604051600160a060020a03808516939216917f8be0079c531659141344cd1fd0a4f28419497f9722a3daafe3b4186f6b6457e091a36000805473ffffffffffffffffffffffffffffffffffffffff1916600160a060020a0392909216919091179055565b60008054600160a060020a0316331461061357600080fd5b50600160a060020a038116600090815260016020526040902054349061063f908263ffffffff61069516565b600160a060020a038316600081815260016020908152604091829020939093558051848152905191927f2da466a7b24304f47e87fa2e1e5a81b9831ce54fec19055ce277ca2f39ba42c492918290030190a25050565b818101828110156106a257fe5b929150505600a165627a7a723058206a163c863dc945ba4ed9a8104ed4166eebab79afdbc9677de48facea640d65830029",
  "source": "/**\n * @title ZepTokenCrowdsale.sol\n * @dev This is the crowd sale contract that will sell the ZepTokens.  It uses the\n * Crowdsale capabilities provided by openzeppelin-solidity.\n * It can also be used with other MintableTokens.\n */\n\npragma solidity ^0.4.24;\n\nimport \"openzeppelin-solidity/contracts/crowdsale/Crowdsale.sol\";\nimport \"openzeppelin-solidity/contracts/crowdsale/emission/MintedCrowdsale.sol\";\nimport \"openzeppelin-solidity/contracts/crowdsale/validation/CappedCrowdsale.sol\";\nimport \"openzeppelin-solidity/contracts/crowdsale/validation/WhitelistedCrowdsale.sol\";\nimport \"openzeppelin-solidity/contracts/crowdsale/distribution/RefundableCrowdsale.sol\";\nimport \"openzeppelin-solidity/contracts/crowdsale/validation/TimedCrowdsale.sol\";\nimport \"openzeppelin-solidity/contracts/math/SafeMath.sol\";\n\ncontract ZepTokenCrowdsale is Crowdsale, MintedCrowdsale, CappedCrowdsale, TimedCrowdsale, WhitelistedCrowdsale, RefundableCrowdsale\n{\n\n  // Set investor limits.  Min and max on an aggregate basis.\n  // Track limits in the mapping.\n  uint256 public _investorMinCap = 10000000000000000; // 0.01 ETH\n  uint256 public _investorMaxCap = 250000000000000000000; // 250 ETH\n  mapping(address => uint256) public _investorContributions;\n\n  // Crowdsale will run through serval phases.  Keep track of this in an enum.\n  enum CrowdsalePhase { PreICO, PublicICO }\n  CrowdsalePhase public phase = CrowdsalePhase.PreICO;\n\n  /**\n   *  @dev Constructor Constructor does nothing except call into constructors it inherits from.\n   *  @param rate conversion rate between ETH and this token.\n   *  @param wallet address for creator of the crowdsale\n   *  @param token the ERC20 token this crowdsale will manage and create\n   *  @param cap Maximum number of tokens that can be created.\n   *  @param goal Minimum amount to be raised for the crowdsale to complete successfully\n   */\n  constructor(\n    uint256 rate,\n    address wallet,\n    ERC20 token,\n    uint256 cap,\n    uint256 goal,\n    uint256 openingTime,\n    uint256 closingTime\n  )\n    Crowdsale(rate, wallet, token)\n    CappedCrowdsale(cap)\n    TimedCrowdsale(openingTime, closingTime)\n    RefundableCrowdsale(goal)\n    public\n  {\n      require(goal <= cap);\n  }\n\n  /**\n   *  @dev _preValidatePurchase Extends validation of parent\n   *  Add additional validation with a minimum and maximum contribution allows\n   *  from each of the investors.  The mapping _investorContributions keeps track\n   *  of how much each investor address has contributed.\n   *  @param beneficiary address trying to purchase tokens\n   *  @param weiAmount amount the beneficiary is attempting to purchase\n   */\n  function _preValidatePurchase(\n    address beneficiary,\n    uint weiAmount\n    ) internal\n  {\n    super._preValidatePurchase(beneficiary, weiAmount);\n    uint256 existingContributions = _investorContributions[beneficiary];\n    uint256 newContribution = SafeMath.add(existingContributions, weiAmount);\n    require(newContribution >= _investorMinCap);\n    require(newContribution <= _investorMaxCap);\n    _investorContributions[beneficiary] = newContribution;\n  }\n\n  /**\n   *  @dev getUserContribution Provides access to how much an address has contributed to this crowdsale\n   *  @param contributor Address of entity (validated seperately via KYC portal) that contributed to the crowd sale.\n   *  @return Amount of tokens the contributor has purchased so far.\n   */\n  function getUserContribution(address contributor)\n    public view returns(uint256)\n  {\n    return(_investorContributions[contributor]);\n  }\n\n  /**\n   *  @dev setCrowdsalePhase Allows an admin to change which phase of the ICO we are in\n   *  @param newPhase you want the ICO to be in\n   */\n  function setCrowdsalePhase(uint newPhase) onlyOwner public\n  {\n    if(uint(CrowdsalePhase.PreICO) == newPhase) {\n      phase = CrowdsalePhase.PreICO;\n    } else if (uint(CrowdsalePhase.PublicICO) == newPhase) {\n      phase = CrowdsalePhase.PublicICO;\n    }\n    // Pre ICO rate is better than the public rate\n    if(phase == CrowdsalePhase.PreICO) {\n      rate = 250;\n    }\n    else if (phase == CrowdsalePhase.PublicICO) {\n      rate = 500;\n    }\n  }\n\n  /**\n   * @dev Overrides Crowdsale fund forwarding, sending funds to escrow.\n   */\n  function _forwardFunds() internal {\n\n    if(phase == CrowdsalePhase.PreICO) {\n      wallet.transfer(msg.value);\n    } else if (phase == CrowdsalePhase.PublicICO) {\n      super._forwardFunds();\n    }\n  }\n\n} // End of contract ZepTokenCrowdsale\n",
  "sourcePath": "/Users/yglm/Documents/Development/Ethereum/DappUniversity/ZepCoin/contracts/ZepTokenCrowdsale.sol",
  "compiler": {
    "name": "solc",
    "version": "0.4.24+commit.e67f0147.Emscripten.clang"
  },
  "schemaVersion": "2.0.1",
  "updatedAt": "2018-10-19T19:27:33.276Z"
}