{
  "contractName": "ZepTokenCrowdsale",
  "abi": [
    {
      "constant": true,
      "inputs": [
        {
          "name": "_operator",
          "type": "address"
        },
        {
          "name": "_role",
          "type": "string"
        }
      ],
      "name": "checkRole",
      "outputs": [],
      "payable": false,
      "stateMutability": "view",
      "type": "function"
    },
    {
      "constant": true,
      "inputs": [],
      "name": "_investorMinCap",
      "outputs": [
        {
          "name": "",
          "type": "uint256"
        }
      ],
      "payable": false,
      "stateMutability": "view",
      "type": "function"
    },
    {
      "constant": true,
      "inputs": [
        {
          "name": "",
          "type": "address"
        }
      ],
      "name": "_investorContributions",
      "outputs": [
        {
          "name": "",
          "type": "uint256"
        }
      ],
      "payable": false,
      "stateMutability": "view",
      "type": "function"
    },
    {
      "constant": true,
      "inputs": [],
      "name": "hasClosed",
      "outputs": [
        {
          "name": "",
          "type": "bool"
        }
      ],
      "payable": false,
      "stateMutability": "view",
      "type": "function"
    },
    {
      "constant": true,
      "inputs": [],
      "name": "founderPercentage",
      "outputs": [
        {
          "name": "",
          "type": "uint256"
        }
      ],
      "payable": false,
      "stateMutability": "view",
      "type": "function"
    },
    {
      "constant": true,
      "inputs": [],
      "name": "ROLE_WHITELISTED",
      "outputs": [
        {
          "name": "",
          "type": "string"
        }
      ],
      "payable": false,
      "stateMutability": "view",
      "type": "function"
    },
    {
      "constant": true,
      "inputs": [
        {
          "name": "_operator",
          "type": "address"
        },
        {
          "name": "_role",
          "type": "string"
        }
      ],
      "name": "hasRole",
      "outputs": [
        {
          "name": "",
          "type": "bool"
        }
      ],
      "payable": false,
      "stateMutability": "view",
      "type": "function"
    },
    {
      "constant": false,
      "inputs": [
        {
          "name": "_operators",
          "type": "address[]"
        }
      ],
      "name": "removeAddressesFromWhitelist",
      "outputs": [],
      "payable": false,
      "stateMutability": "nonpayable",
      "type": "function"
    },
    {
      "constant": false,
      "inputs": [
        {
          "name": "_operator",
          "type": "address"
        }
      ],
      "name": "removeAddressFromWhitelist",
      "outputs": [],
      "payable": false,
      "stateMutability": "nonpayable",
      "type": "function"
    },
    {
      "constant": true,
      "inputs": [],
      "name": "rate",
      "outputs": [
        {
          "name": "",
          "type": "uint256"
        }
      ],
      "payable": false,
      "stateMutability": "view",
      "type": "function"
    },
    {
      "constant": true,
      "inputs": [],
      "name": "cap",
      "outputs": [
        {
          "name": "",
          "type": "uint256"
        }
      ],
      "payable": false,
      "stateMutability": "view",
      "type": "function"
    },
    {
      "constant": true,
      "inputs": [],
      "name": "goal",
      "outputs": [
        {
          "name": "",
          "type": "uint256"
        }
      ],
      "payable": false,
      "stateMutability": "view",
      "type": "function"
    },
    {
      "constant": true,
      "inputs": [],
      "name": "weiRaised",
      "outputs": [
        {
          "name": "",
          "type": "uint256"
        }
      ],
      "payable": false,
      "stateMutability": "view",
      "type": "function"
    },
    {
      "constant": true,
      "inputs": [],
      "name": "closingTime",
      "outputs": [
        {
          "name": "",
          "type": "uint256"
        }
      ],
      "payable": false,
      "stateMutability": "view",
      "type": "function"
    },
    {
      "constant": false,
      "inputs": [],
      "name": "finalize",
      "outputs": [],
      "payable": false,
      "stateMutability": "nonpayable",
      "type": "function"
    },
    {
      "constant": true,
      "inputs": [],
      "name": "capReached",
      "outputs": [
        {
          "name": "",
          "type": "bool"
        }
      ],
      "payable": false,
      "stateMutability": "view",
      "type": "function"
    },
    {
      "constant": true,
      "inputs": [],
      "name": "wallet",
      "outputs": [
        {
          "name": "",
          "type": "address"
        }
      ],
      "payable": false,
      "stateMutability": "view",
      "type": "function"
    },
    {
      "constant": false,
      "inputs": [],
      "name": "renounceOwnership",
      "outputs": [],
      "payable": false,
      "stateMutability": "nonpayable",
      "type": "function"
    },
    {
      "constant": false,
      "inputs": [
        {
          "name": "_operator",
          "type": "address"
        }
      ],
      "name": "addAddressToWhitelist",
      "outputs": [],
      "payable": false,
      "stateMutability": "nonpayable",
      "type": "function"
    },
    {
      "constant": true,
      "inputs": [],
      "name": "goalReached",
      "outputs": [
        {
          "name": "",
          "type": "bool"
        }
      ],
      "payable": false,
      "stateMutability": "view",
      "type": "function"
    },
    {
      "constant": true,
      "inputs": [],
      "name": "isFinalized",
      "outputs": [
        {
          "name": "",
          "type": "bool"
        }
      ],
      "payable": false,
      "stateMutability": "view",
      "type": "function"
    },
    {
      "constant": true,
      "inputs": [],
      "name": "owner",
      "outputs": [
        {
          "name": "",
          "type": "address"
        }
      ],
      "payable": false,
      "stateMutability": "view",
      "type": "function"
    },
    {
      "constant": true,
      "inputs": [
        {
          "name": "_operator",
          "type": "address"
        }
      ],
      "name": "whitelist",
      "outputs": [
        {
          "name": "",
          "type": "bool"
        }
      ],
      "payable": false,
      "stateMutability": "view",
      "type": "function"
    },
    {
      "constant": true,
      "inputs": [],
      "name": "phase",
      "outputs": [
        {
          "name": "",
          "type": "uint8"
        }
      ],
      "payable": false,
      "stateMutability": "view",
      "type": "function"
    },
    {
      "constant": false,
      "inputs": [],
      "name": "claimRefund",
      "outputs": [],
      "payable": false,
      "stateMutability": "nonpayable",
      "type": "function"
    },
    {
      "constant": true,
      "inputs": [],
      "name": "openingTime",
      "outputs": [
        {
          "name": "",
          "type": "uint256"
        }
      ],
      "payable": false,
      "stateMutability": "view",
      "type": "function"
    },
    {
      "constant": true,
      "inputs": [],
      "name": "developersPercentage",
      "outputs": [
        {
          "name": "",
          "type": "uint256"
        }
      ],
      "payable": false,
      "stateMutability": "view",
      "type": "function"
    },
    {
      "constant": true,
      "inputs": [],
      "name": "communityPercentage",
      "outputs": [
        {
          "name": "",
          "type": "uint256"
        }
      ],
      "payable": false,
      "stateMutability": "view",
      "type": "function"
    },
    {
      "constant": true,
      "inputs": [],
      "name": "_investorMaxCap",
      "outputs": [
        {
          "name": "",
          "type": "uint256"
        }
      ],
      "payable": false,
      "stateMutability": "view",
      "type": "function"
    },
    {
      "constant": false,
      "inputs": [
        {
          "name": "_operators",
          "type": "address[]"
        }
      ],
      "name": "addAddressesToWhitelist",
      "outputs": [],
      "payable": false,
      "stateMutability": "nonpayable",
      "type": "function"
    },
    {
      "constant": false,
      "inputs": [
        {
          "name": "_beneficiary",
          "type": "address"
        }
      ],
      "name": "buyTokens",
      "outputs": [],
      "payable": true,
      "stateMutability": "payable",
      "type": "function"
    },
    {
      "constant": false,
      "inputs": [
        {
          "name": "_newOwner",
          "type": "address"
        }
      ],
      "name": "transferOwnership",
      "outputs": [],
      "payable": false,
      "stateMutability": "nonpayable",
      "type": "function"
    },
    {
      "constant": true,
      "inputs": [],
      "name": "partnersPercentage",
      "outputs": [
        {
          "name": "",
          "type": "uint256"
        }
      ],
      "payable": false,
      "stateMutability": "view",
      "type": "function"
    },
    {
      "constant": true,
      "inputs": [],
      "name": "token",
      "outputs": [
        {
          "name": "",
          "type": "address"
        }
      ],
      "payable": false,
      "stateMutability": "view",
      "type": "function"
    },
    {
      "inputs": [
        {
          "name": "rate",
          "type": "uint256"
        },
        {
          "name": "wallet",
          "type": "address"
        },
        {
          "name": "token",
          "type": "address"
        },
        {
          "name": "cap",
          "type": "uint256"
        },
        {
          "name": "goal",
          "type": "uint256"
        },
        {
          "name": "openingTime",
          "type": "uint256"
        },
        {
          "name": "closingTime",
          "type": "uint256"
        }
      ],
      "payable": false,
      "stateMutability": "nonpayable",
      "type": "constructor"
    },
    {
      "payable": true,
      "stateMutability": "payable",
      "type": "fallback"
    },
    {
      "anonymous": false,
      "inputs": [],
      "name": "Finalized",
      "type": "event"
    },
    {
      "anonymous": false,
      "inputs": [
        {
          "indexed": true,
          "name": "purchaser",
          "type": "address"
        },
        {
          "indexed": true,
          "name": "beneficiary",
          "type": "address"
        },
        {
          "indexed": false,
          "name": "value",
          "type": "uint256"
        },
        {
          "indexed": false,
          "name": "amount",
          "type": "uint256"
        }
      ],
      "name": "TokenPurchase",
      "type": "event"
    },
    {
      "anonymous": false,
      "inputs": [
        {
          "indexed": true,
          "name": "operator",
          "type": "address"
        },
        {
          "indexed": false,
          "name": "role",
          "type": "string"
        }
      ],
      "name": "RoleAdded",
      "type": "event"
    },
    {
      "anonymous": false,
      "inputs": [
        {
          "indexed": true,
          "name": "operator",
          "type": "address"
        },
        {
          "indexed": false,
          "name": "role",
          "type": "string"
        }
      ],
      "name": "RoleRemoved",
      "type": "event"
    },
    {
      "anonymous": false,
      "inputs": [
        {
          "indexed": true,
          "name": "previousOwner",
          "type": "address"
        }
      ],
      "name": "OwnershipRenounced",
      "type": "event"
    },
    {
      "anonymous": false,
      "inputs": [
        {
          "indexed": true,
          "name": "previousOwner",
          "type": "address"
        },
        {
          "indexed": true,
          "name": "newOwner",
          "type": "address"
        }
      ],
      "name": "OwnershipTransferred",
      "type": "event"
    },
    {
      "constant": true,
      "inputs": [
        {
          "name": "contributor",
          "type": "address"
        }
      ],
      "name": "getUserContribution",
      "outputs": [
        {
          "name": "",
          "type": "uint256"
        }
      ],
      "payable": false,
      "stateMutability": "view",
      "type": "function"
    },
    {
      "constant": false,
      "inputs": [
        {
          "name": "newPhase",
          "type": "uint256"
        }
      ],
      "name": "setCrowdsalePhase",
      "outputs": [],
      "payable": false,
      "stateMutability": "nonpayable",
      "type": "function"
    }
  ],
  "bytecode": "0x60806040526009805460ff19908116909155662386f26fc10000600c55680d8d726b7177a80000600d55600f805490911690556046601055600a601181905560128190556013553480156200005357600080fd5b5060405160e08062001f7583398101604090815281516020830151918301516060840151608085015160a086015160c09096015160008054600160a060020a03191633178155949693949293919283908390839087908b908b908b908311620000bb57600080fd5b600160a060020a0382161515620000d157600080fd5b600160a060020a0381161515620000e757600080fd5b60049290925560038054600160a060020a03928316600160a060020a03199182161790915560028054929093169116179055600081116200012757600080fd5b600655428210156200013857600080fd5b818110156200014657600080fd5b600791909155600855600081116200015d57600080fd5b600354600160a060020a031662000173620001e0565b600160a060020a03909116815260405190819003602001906000f080158015620001a1573d6000803e3d6000fd5b50600b8054600160a060020a031916600160a060020a0392909216919091179055600a5583831115620001d357600080fd5b50505050505050620001f1565b604051610757806200181e83390190565b61161d80620002016000396000f3006080604052600436106101a85763ffffffff60e060020a6000350416630988ca8c81146101b35780630ff902851461021a57806314b3e327146102415780631515bc2b1461026257806317cf69141461028b57806318b919e9146102a0578063217fe6c61461032a57806324953eaa14610391578063286dd3f5146103e65780632c4e722e14610407578063355274ea1461041c57806340193883146104315780634042b66f146104465780634b6753bc1461045b5780634bb278f3146104705780634f93594514610485578063521eb2731461049a578063715018a6146104cb5780637b9417c8146104e05780637d3d65221461050157806380d146f8146105165780638d4e40831461052e5780638da5cb5b146105435780639b19251a14610558578063b1c9fe6e14610579578063b5545a3c146105b2578063b7a8807c146105c7578063bb8b2b47146105dc578063be518d81146105fd578063c82403d614610612578063d7a026e714610627578063e2ec6ec31461063c578063ec8ac4d814610691578063f2fde38b146106a5578063f45b9bed146106c6578063fc0c546a146106db575b6101b1336106f0565b005b3480156101bf57600080fd5b5060408051602060046024803582810135601f81018590048502860185019096528585526101b1958335600160a060020a03169536956044949193909101919081908401838280828437509497506107929650505050505050565b34801561022657600080fd5b5061022f610800565b60408051918252519081900360200190f35b34801561024d57600080fd5b5061022f600160a060020a0360043516610806565b34801561026e57600080fd5b50610277610818565b604080519115158252519081900360200190f35b34801561029757600080fd5b5061022f610820565b3480156102ac57600080fd5b506102b5610826565b6040805160208082528351818301528351919283929083019185019080838360005b838110156102ef5781810151838201526020016102d7565b50505050905090810190601f16801561031c5780820380516001836020036101000a031916815260200191505b509250505060405180910390f35b34801561033657600080fd5b5060408051602060046024803582810135601f8101859004850286018501909652858552610277958335600160a060020a031695369560449491939091019190819084018382808284375094975061084b9650505050505050565b34801561039d57600080fd5b50604080516020600480358082013583810280860185019096528085526101b1953695939460249493850192918291850190849080828437509497506108c09650505050505050565b3480156103f257600080fd5b506101b1600160a060020a036004351661090d565b34801561041357600080fd5b5061022f610954565b34801561042857600080fd5b5061022f61095a565b34801561043d57600080fd5b5061022f610960565b34801561045257600080fd5b5061022f610966565b34801561046757600080fd5b5061022f61096c565b34801561047c57600080fd5b506101b1610972565b34801561049157600080fd5b506102776109ec565b3480156104a657600080fd5b506104af6109f7565b60408051600160a060020a039092168252519081900360200190f35b3480156104d757600080fd5b506101b1610a06565b3480156104ec57600080fd5b506101b1600160a060020a0360043516610a72565b34801561050d57600080fd5b50610277610ab6565b34801561052257600080fd5b506101b1600435610ac1565b34801561053a57600080fd5b50610277610b4a565b34801561054f57600080fd5b506104af610b53565b34801561056457600080fd5b50610277600160a060020a0360043516610b62565b34801561058557600080fd5b5061058e610b91565b6040518082600181111561059e57fe5b60ff16815260200191505060405180910390f35b3480156105be57600080fd5b506101b1610b9a565b3480156105d357600080fd5b5061022f610c3c565b3480156105e857600080fd5b5061022f600160a060020a0360043516610c42565b34801561060957600080fd5b5061022f610c5d565b34801561061e57600080fd5b5061022f610c63565b34801561063357600080fd5b5061022f610c69565b34801561064857600080fd5b50604080516020600480358082013583810280860185019096528085526101b195369593946024949385019291829185019084908082843750949750610c6f9650505050505050565b6101b1600160a060020a03600435166106f0565b3480156106b157600080fd5b506101b1600160a060020a0360043516610cbc565b3480156106d257600080fd5b5061022f610cdc565b3480156106e757600080fd5b506104af610ce2565b3460006106fd8383610cf1565b61070682610d65565b60055490915061071c908363ffffffff610d7c16565b6005556107298382610d89565b60408051838152602081018390528151600160a060020a0386169233927f623b3804fa71d67900d064613da8f94b9617215ee90799290593e1745087ad18929081900390910190a361077b83836107fc565b610783610d93565b61078d83836107fc565b505050565b6107fc826001836040518082805190602001908083835b602083106107c85780518252601f1990920191602091820191016107a9565b51815160209384036101000a6000190180199092169116179052920194855250604051938490030190922092915050610e0e565b5050565b600c5481565b600e6020526000908152604090205481565b600854421190565b60115481565b60408051808201909152600981526000805160206115d2833981519152602082015281565b60006108b7836001846040518082805190602001908083835b602083106108835780518252601f199092019160209182019101610864565b51815160209384036101000a6000190180199092169116179052920194855250604051938490030190922092915050610e23565b90505b92915050565b60008054600160a060020a031633146108d857600080fd5b5060005b81518110156107fc5761090582828151811015156108f657fe5b9060200190602002015161090d565b6001016108dc565b600054600160a060020a0316331461092457600080fd5b610951816040805190810160405280600981526020016000805160206115d2833981519152815250610e42565b50565b60045481565b60065481565b600a5481565b60055481565b60085481565b600054600160a060020a0316331461098957600080fd5b60095460ff161561099957600080fd5b6109a1610818565b15156109ac57600080fd5b6109b4610f53565b6040517f6823b073d48d6e3a7d385eeb601452d680e74bb46afe3255a7d778f3a9b1768190600090a16009805460ff19166001179055565b600654600554101590565b600354600160a060020a031681565b600054600160a060020a03163314610a1d57600080fd5b60008054604051600160a060020a03909116917ff8df31144d9c2f0f6b59d69b8b98abd5459d07f2742c4df920b25aae33c6482091a26000805473ffffffffffffffffffffffffffffffffffffffff19169055565b600054600160a060020a03163314610a8957600080fd5b610951816040805190810160405280600981526020016000805160206115d28339815191528152506110e7565b600a54600554101590565b600054600160a060020a03163314610ad857600080fd5b801515610aee57600f805460ff19169055610b05565b8060011415610b0557600f805460ff191660011790555b6000600f5460ff166001811115610b1857fe5b1415610b285760fa600455610951565b6001600f5460ff166001811115610b3b57fe5b1415610951576101f460045550565b60095460ff1681565b600054600160a060020a031681565b60006108ba826040805190810160405280600981526020016000805160206115d283398151915281525061084b565b600f5460ff1681565b60095460ff161515610bab57600080fd5b610bb3610ab6565b15610bbd57600080fd5b600b54604080517f51cff8d90000000000000000000000000000000000000000000000000000000081523360048201529051600160a060020a03909216916351cff8d99160248082019260009290919082900301818387803b158015610c2257600080fd5b505af1158015610c36573d6000803e3d6000fd5b50505050565b60075481565b600160a060020a03166000908152600e602052604090205490565b60135481565b60105481565b600d5481565b60008054600160a060020a03163314610c8757600080fd5b5060005b81518110156107fc57610cb48282815181101515610ca557fe5b90602001906020020151610a72565b600101610c8b565b600054600160a060020a03163314610cd357600080fd5b610951816111b9565b60125481565b600254600160a060020a031681565b600080610cfe8484611236565b600160a060020a0384166000908152600e60205260409020549150610d238284610d7c565b600c54909150811015610d3557600080fd5b600d54811115610d4457600080fd5b600160a060020a039093166000908152600e60205260409020929092555050565b60006108ba6004548361126e90919063ffffffff16565b818101828110156108ba57fe5b6107fc8282611297565b6000600f5460ff166001811115610da657fe5b1415610deb57600354604051600160a060020a03909116903480156108fc02916000818181858888f19350505050158015610de5573d6000803e3d6000fd5b50610e0c565b6001600f5460ff166001811115610dfe57fe5b1415610e0c57610e0c61133d565b565b610e188282610e23565b15156107fc57600080fd5b600160a060020a03166000908152602091909152604090205460ff1690565b610eac826001836040518082805190602001908083835b60208310610e785780518252601f199092019160209182019101610e59565b51815160209384036101000a60001901801990921691161790529201948552506040519384900301909220929150506113be565b81600160a060020a03167fd211483f91fc6eff862467f8de606587a30c8fc9981056f051b897a418df803a826040518080602001828103825283818151815260200191508051906020019080838360005b83811015610f15578181015183820152602001610efd565b50505050905090810190601f168015610f425780820380516001836020036101000a031916815260200191505b509250505060405180910390a25050565b600080610f5e610ab6565b156110df57600260009054906101000a9004600160a060020a0316915081600160a060020a0316637d64bcb46040518163ffffffff1660e060020a028152600401602060405180830381600087803b158015610fb957600080fd5b505af1158015610fcd573d6000803e3d6000fd5b505050506040513d6020811015610fe357600080fd5b5050600254604080517f3f4ba83a0000000000000000000000000000000000000000000000000000000081529051600160a060020a0390921692508291633f4ba83a9160048082019260009290919082900301818387803b15801561104757600080fd5b505af115801561105b573d6000803e3d6000fd5b5050600354604080517ff2fde38b000000000000000000000000000000000000000000000000000000008152600160a060020a0392831660048201529051918516935063f2fde38b925060248082019260009290919082900301818387803b1580156110c657600080fd5b505af11580156110da573d6000803e3d6000fd5b505050505b6107fc6113e0565b611151826001836040518082805190602001908083835b6020831061111d5780518252601f1990920191602091820191016110fe565b51815160209384036101000a600019018019909216911617905292019485525060405193849003019092209291505061153c565b81600160a060020a03167fbfec83d64eaa953f2708271a023ab9ee82057f8f3578d548c1a4ba0b5b7004898260405180806020018281038252838181518152602001915080519060200190808383600083811015610f15578181015183820152602001610efd565b600160a060020a03811615156111ce57600080fd5b60008054604051600160a060020a03808516939216917f8be0079c531659141344cd1fd0a4f28419497f9722a3daafe3b4186f6b6457e091a36000805473ffffffffffffffffffffffffffffffffffffffff1916600160a060020a0392909216919091179055565b81611264816040805190810160405280600981526020016000805160206115d2833981519152815250610792565b61078d8383611561565b600082151561127f575060006108ba565b5081810281838281151561128f57fe5b04146108ba57fe5b600254604080517f40c10f19000000000000000000000000000000000000000000000000000000008152600160a060020a03858116600483015260248201859052915191909216916340c10f199160448083019260209291908290030181600087803b15801561130657600080fd5b505af115801561131a573d6000803e3d6000fd5b505050506040513d602081101561133057600080fd5b505115156107fc57600080fd5b600b54604080517ff340fa010000000000000000000000000000000000000000000000000000000081523360048201529051600160a060020a039092169163f340fa01913491602480830192600092919082900301818588803b1580156113a357600080fd5b505af11580156113b7573d6000803e3d6000fd5b5050505050565b600160a060020a0316600090815260209190915260409020805460ff19169055565b6113e8610ab6565b156114c857600b60009054906101000a9004600160a060020a0316600160a060020a03166343d726d66040518163ffffffff1660e060020a028152600401600060405180830381600087803b15801561144057600080fd5b505af1158015611454573d6000803e3d6000fd5b50505050600b60009054906101000a9004600160a060020a0316600160a060020a0316639af6549a6040518163ffffffff1660e060020a028152600401600060405180830381600087803b1580156114ab57600080fd5b505af11580156114bf573d6000803e3d6000fd5b50505050611534565b600b60009054906101000a9004600160a060020a0316600160a060020a0316638c52dc416040518163ffffffff1660e060020a028152600401600060405180830381600087803b15801561151b57600080fd5b505af115801561152f573d6000803e3d6000fd5b505050505b610e0c610e0c565b600160a060020a0316600090815260209190915260409020805460ff19166001179055565b600754421015801561157557506008544211155b151561158057600080fd5b6107fc828261158f82826115b0565b6006546005546115a5908363ffffffff610d7c16565b11156107fc57600080fd5b600160a060020a03821615156115c557600080fd5b8015156107fc57600080fd0077686974656c6973740000000000000000000000000000000000000000000000a165627a7a72305820e30cc7f545478821f6ad2b8b0bf48edf37b26406a9b3e20596c4f148b1b5ac590029608060405234801561001057600080fd5b50604051602080610757833981016040525160008054600160a060020a03191633179055600160a060020a038116151561004957600080fd5b6002805460ff19600160a060020a03939093166101000261010060a860020a0319909116179190911690556106d4806100836000396000f3006080604052600436106100b95763ffffffff7c010000000000000000000000000000000000000000000000000000000060003504166338af3eed81146100be57806343d726d6146100ef57806351cff8d914610106578063685ca19414610127578063715018a61461015c5780638c52dc41146101715780638da5cb5b146101865780639af6549a1461019b578063c19d93fb146101b0578063e3a9db1a146101e9578063f2fde38b1461021c578063f340fa011461023d575b600080fd5b3480156100ca57600080fd5b506100d3610251565b60408051600160a060020a039092168252519081900360200190f35b3480156100fb57600080fd5b50610104610265565b005b34801561011257600080fd5b50610104600160a060020a03600435166102d0565b34801561013357600080fd5b50610148600160a060020a03600435166102f0565b604080519115158252519081900360200190f35b34801561016857600080fd5b5061010461030c565b34801561017d57600080fd5b50610104610378565b34801561019257600080fd5b506100d36103e4565b3480156101a757600080fd5b506101046103f3565b3480156101bc57600080fd5b506101c561044f565b604051808260028111156101d557fe5b60ff16815260200191505060405180910390f35b3480156101f557600080fd5b5061020a600160a060020a0360043516610458565b60408051918252519081900360200190f35b34801561022857600080fd5b50610104600160a060020a0360043516610473565b610104600160a060020a0360043516610493565b6002546101009004600160a060020a031681565b600054600160a060020a0316331461027c57600080fd5b60006002805460ff169081111561028f57fe5b1461029957600080fd5b6002805460ff1916811790556040517f1cdde67b72a90f19919ac732a437ac2f7a10fc128d28c2a6e525d89ce5cd9d3a90600090a1565b6102d9816102f0565b15156102e457600080fd5b6102ed816104b9565b50565b600060016002805460ff169081111561030557fe5b1492915050565b600054600160a060020a0316331461032357600080fd5b60008054604051600160a060020a03909116917ff8df31144d9c2f0f6b59d69b8b98abd5459d07f2742c4df920b25aae33c6482091a26000805473ffffffffffffffffffffffffffffffffffffffff19169055565b600054600160a060020a0316331461038f57600080fd5b60006002805460ff16908111156103a257fe5b146103ac57600080fd5b6002805460ff191660011790556040517f599d8e5a83cffb867d051598c4d70e805d59802d8081c1c7d6dffc5b6aca2b8990600090a1565b600054600160a060020a031681565b6002805460ff168181111561040457fe5b1461040e57600080fd5b600254604051600160a060020a036101009092049190911690303180156108fc02916000818181858888f193505050501580156102ed573d6000803e3d6000fd5b60025460ff1681565b600160a060020a031660009081526001602052604090205490565b600054600160a060020a0316331461048a57600080fd5b6102ed8161057e565b60006002805460ff16908111156104a657fe5b146104b057600080fd5b6102ed816105fb565b60008054600160a060020a031633146104d157600080fd5b50600160a060020a03811660009081526001602052604090205430318111156104f657fe5b600160a060020a0382166000818152600160205260408082208290555183156108fc0291849190818181858888f1935050505015801561053a573d6000803e3d6000fd5b50604080518281529051600160a060020a038416917f7084f5476618d8e60b11ef0d7d3f06914655adb8793e28ff7f018d4c76d505d5919081900360200190a25050565b600160a060020a038116151561059357600080fd5b60008054604051600160a060020a03808516939216917f8be0079c531659141344cd1fd0a4f28419497f9722a3daafe3b4186f6b6457e091a36000805473ffffffffffffffffffffffffffffffffffffffff1916600160a060020a0392909216919091179055565b60008054600160a060020a0316331461061357600080fd5b50600160a060020a038116600090815260016020526040902054349061063f908263ffffffff61069516565b600160a060020a038316600081815260016020908152604091829020939093558051848152905191927f2da466a7b24304f47e87fa2e1e5a81b9831ce54fec19055ce277ca2f39ba42c492918290030190a25050565b818101828110156106a257fe5b929150505600a165627a7a723058206a163c863dc945ba4ed9a8104ed4166eebab79afdbc9677de48facea640d65830029",
  "source": "/**\n * @title ZepTokenCrowdsale.sol\n * @dev This is the crowd sale contract that will sell the ZepTokens.  It uses the\n * Crowdsale capabilities provided by openzeppelin-solidity.\n * It can also be used with other MintableTokens.\n */\n\npragma solidity ^0.4.24;\n\nimport \"openzeppelin-solidity/contracts/token/ERC20/ERC20.sol\";\nimport \"openzeppelin-solidity/contracts/token/ERC20/PausableToken.sol\";\nimport \"openzeppelin-solidity/contracts/token/ERC20/MintableToken.sol\";\nimport \"openzeppelin-solidity/contracts/crowdsale/Crowdsale.sol\";\nimport \"openzeppelin-solidity/contracts/crowdsale/emission/MintedCrowdsale.sol\";\nimport \"openzeppelin-solidity/contracts/crowdsale/validation/CappedCrowdsale.sol\";\nimport \"openzeppelin-solidity/contracts/crowdsale/validation/WhitelistedCrowdsale.sol\";\nimport \"openzeppelin-solidity/contracts/crowdsale/distribution/RefundableCrowdsale.sol\";\nimport \"openzeppelin-solidity/contracts/crowdsale/validation/TimedCrowdsale.sol\";\nimport \"openzeppelin-solidity/contracts/math/SafeMath.sol\";\n\ncontract ZepTokenCrowdsale is Crowdsale, MintedCrowdsale, CappedCrowdsale, TimedCrowdsale, WhitelistedCrowdsale, RefundableCrowdsale\n{\n\n  // Set investor limits.  Min and max on an aggregate basis.\n  // Track limits in the mapping.\n  uint256 public _investorMinCap = 10000000000000000; // 0.01 ETH\n  uint256 public _investorMaxCap = 250000000000000000000; // 250 ETH\n  mapping(address => uint256) public _investorContributions;\n\n  // Crowdsale will run through serval phases.  Keep track of this in an enum.\n  enum CrowdsalePhase { PreICO, PublicICO }\n  CrowdsalePhase public phase = CrowdsalePhase.PreICO;\n\n  // Token distribution\n  uint256 public communityPercentage = 70;\n  uint256 public founderPercentage = 10;\n  uint256 public partnersPercentage = 10;\n  uint256 public developersPercentage = 10;\n\n  /**\n   *  @dev Constructor Constructor does nothing except call into constructors it inherits from.\n   *  @param rate conversion rate between ETH and this token.\n   *  @param wallet address for creator of the crowdsale\n   *  @param token the ERC20 token this crowdsale will manage and create\n   *  @param cap Maximum number of tokens that can be created.\n   *  @param goal Minimum amount to be raised for the crowdsale to complete successfully\n   */\n  constructor(\n    uint256 rate,\n    address wallet,\n    ERC20 token,\n    uint256 cap,\n    uint256 goal,\n    uint256 openingTime,\n    uint256 closingTime\n  )\n    Crowdsale(rate, wallet, token)\n    CappedCrowdsale(cap)\n    TimedCrowdsale(openingTime, closingTime)\n    RefundableCrowdsale(goal)\n    public\n  {\n      require(goal <= cap);\n  }\n\n  /**\n   *  @dev _preValidatePurchase Extends validation of parent\n   *  Add additional validation with a minimum and maximum contribution allows\n   *  from each of the investors.  The mapping _investorContributions keeps track\n   *  of how much each investor address has contributed.\n   *  @param beneficiary address trying to purchase tokens\n   *  @param weiAmount amount the beneficiary is attempting to purchase\n   */\n  function _preValidatePurchase(\n    address beneficiary,\n    uint weiAmount\n    ) internal\n  {\n    super._preValidatePurchase(beneficiary, weiAmount);\n    uint256 existingContributions = _investorContributions[beneficiary];\n    uint256 newContribution = SafeMath.add(existingContributions, weiAmount);\n    require(newContribution >= _investorMinCap);\n    require(newContribution <= _investorMaxCap);\n    _investorContributions[beneficiary] = newContribution;\n  }\n\n  /**\n   *  @dev getUserContribution Provides access to how much an address has contributed to this crowdsale\n   *  @param contributor Address of entity (validated seperately via KYC portal) that contributed to the crowd sale.\n   *  @return Amount of tokens the contributor has purchased so far.\n   */\n  function getUserContribution(address contributor)\n    public view returns(uint256)\n  {\n    return(_investorContributions[contributor]);\n  }\n\n  /**\n   *  @dev setCrowdsalePhase Allows an admin to change which phase of the ICO we are in\n   *  @param newPhase you want the ICO to be in\n   */\n  function setCrowdsalePhase(uint newPhase) onlyOwner public\n  {\n    if(uint(CrowdsalePhase.PreICO) == newPhase) {\n      phase = CrowdsalePhase.PreICO;\n    } else if (uint(CrowdsalePhase.PublicICO) == newPhase) {\n      phase = CrowdsalePhase.PublicICO;\n    }\n    // Pre ICO rate is better than the public rate\n    if(phase == CrowdsalePhase.PreICO) {\n      rate = 250;\n    }\n    else if (phase == CrowdsalePhase.PublicICO) {\n      rate = 500;\n    }\n  }\n\n  /**\n   * @dev The wallet receives funds during the PreICO phase, vault receives funds during the PublicICO phase\n   */\n  function _forwardFunds() internal {\n\n    if(phase == CrowdsalePhase.PreICO) {\n      wallet.transfer(msg.value);\n    } else if (phase == CrowdsalePhase.PublicICO) {\n      super._forwardFunds();\n    }\n  }\n\n  /**\n   * @dev Owner calls this to finalize the crowdsale. Must be after the sale has closed.\n   */\n  function finalization() internal {\n    if(goalReached()) {\n      // Finish minting. Freeze the total supply.\n      MintableToken mintableToken = MintableToken(token);\n      mintableToken.finishMinting();\n      // Unpause the token to allow it to trade normally.\n      // Make sure to tranfer ownership back to the wallet.\n      PausableToken pausableToken = PausableToken(token);\n      pausableToken.unpause();\n      pausableToken.transferOwnership(wallet);\n    }\n    super.finalization();\n  }\n\n} // End of contract ZepTokenCrowdsale\n",
  "sourcePath": "/Users/yglm/Documents/Development/Ethereum/DappUniversity/ZepCoin/contracts/ZepTokenCrowdsale.sol",
  "compiler": {
    "name": "solc",
    "version": "0.4.24+commit.e67f0147.Emscripten.clang"
  },
  "schemaVersion": "2.0.1",
  "updatedAt": "2018-10-20T15:35:44.644Z"
}